:100000000C94A8010C94EF010C94EF010C940303E1
:100010000C94EF010C94EF010C94EF010C94EF01A0
:100020000C94EF010C94EF010C94901A0C94621B49
:100030000C9432160C94EF010C94EF010C94EF0128
:100040000C94EF010C94EF010C94EF010C94EF0170
:100050000C94EF010C947F160C94EF010C94EF01BB
:100060000C94EF010C94EF010C94EF010C94EF0150
:100070000C94EF010C94EF010C94EF010C94EF0140
:100080000C94EF010C94EF010C94EF010C94EF0130
:100090000C94F1010C94EF010C94EF010C94EF011E
:1000A0000C94EF010C94EF010C94EF01E70CE70CBA
:1000B000190D190D6F0E6F0E6F0E6F0E660DFF0D81
:1000C000100E100E030F030F150F150F0C0F150F49
:1000D000150F150F030F030F110F150F150F110F2C
:1000E000CF1BF61BEE1CF61BEE1C421C651CEE1C07
:1000F000BC1CCB1C2B0014001A00080015001700B4
:100100000000E30004001600070009000A000000D8
:10011000E2001D001B0006001900050000000000A1
:1001200000002C080251E000E10000002A0013004A
:1001300012000C0018001C000000280033000F0003
:100140000E000D000B0000003400380037003600B0
:1001500010001100000000000000E400E5002C0089
:1001600001510000290088003A003B003C003D009E
:100170000000010091003E003F00400041000000EF
:100180000100350442004300440045000000000027
:100190000000010000000100010000004C00A80068
:1001A00020001F001E00270000000100A9002300FE
:1001B00022002100461400000000AA0026002500AD
:1001C00024004600000000000000010001000100C2
:1001D0000000000035001E021F0220022102220240
:1001E000000001005001500052004F004F0100007C
:1001F00001004A00500451004F044D00000000006F
:1002000000000100000001000100000001002702C1
:100210002602250224022302000001002E022D00E6
:10022000310030022F0200002C002E002D020000B1
:1002300030002F000000000000000100010001005C
:10024000E6000000E20201000100010001000100DF
:100250000000E002010001000100010001000000B7
:10026000E2010100010001000100010000000000A6
:100270000000010001000100000000000100010079
:100280000100010001000100000001000100010067
:100290000100010001000000010001000100010057
:1002A0000100010000000000000001000100010049
:1002B000000000000403300000000E0363006C0027
:1002C000610077003400340000000C037900660000
:1002D00075006B0075000000040309040902220088
:1002E000010100A0FA090400000103010100092135
:1002F000110100012240000705810308000A1201D4
:10030000100100000008EDFE603001000102030151
:1003100005010906A101050719E029E715002501D6
:10032000950875018102950175088101050719007D
:1003300029FF150026FF009506750881000508199C
:10034000012905950575019102950175039101C07B
:1003500011241FBECFEFDAE0DEBFCDBF04B603FE2F
:1003600027C080910F0290911002A0911102B091CC
:1003700012028730904BA740B04BD1F410920F027D
:1003800010921002109211021092120214BE84B741
:10039000877F84BF0FB6F894A8958091600088612C
:1003A00080936000109260000FBEE0E0F8E30995D2
:1003B00011E0A0E0B1E0E2EFFAE302C005900D9297
:1003C000A833B107D9F722E0A8E3B1E001C01D923C
:1003D000AF30B207E1F70E94E1170C94771D0C943F
:1003E00000001F920F920FB60F9211248F939F93CC
:1003F000EF93FF938091B900887F803869F038F4DB
:100400008823C9F18036C9F51092380136C0883A80
:1004100009F1883BF9F031C080913801811111C098
:100420008091BB008093390180913901803120F0A7
:100430001092390180E001C081E091E09093380191
:100440001DC0E0913901F0E08091BB00E451FE4F06
:10045000808308C0E0913901F0E0E451FE4F8081D3
:100460008093BB008091390190E001968F709927AD
:100470008093390102C01092BC0081E09091BC00D1
:100480008295880F880F807C9568892B8093BC00AB
:10049000FF91EF919F918F910F900FBE0F901F9042
:1004A00018958EE14A9B02C08150E1F74A9BFECF2E
:1004B00008955A9880E28A95F1F75A9A0895FC01B6
:1004C0002AE02A95F1F790E020E080E031E026175D
:1004D00079F040E14A95F1F7880F4A9B02C08160AC
:1004E000932700C0000040E14A95F1F72F5FEFCF5E
:1004F00020E12A95F1F729B100C0000030E13A95DA
:10050000F1F722FB222720F992272081920F908376
:100510000895EF92FF920F931F93CF93DF931F9253
:10052000CDB7DEB719828C017C01E60EF11C0E15E9
:100530001F0559F00E94510268E0CE0101960E9409
:100540005F02F80181938F01F2CF81E099819111CF
:1005500080E00F90DF91CF911F910F91FF90EF906E
:10056000089590933C0180933B0160933A01529A25
:100570005A9A089590933C0180933B0160933A010D
:1005800052985A9AEA9AE9E6F0E080818F7C80835B
:100590000895615091E001C0990F6A95EAF720E053
:1005A00031E0992361F0492F482319F05A9A232703
:1005B00001C05A9840E24A95F1F79695F2CF22236E
:1005C00011F05A9A01C05A9880E28A95F1F75A9828
:1005D0000895FF920F931F93CF93DF93EC018C014B
:1005E000060F111DC017D10741F0F9900E94590262
:1005F00068E08F2D0E94C902F5CFDF91CF911F9146
:100600000F91FF9008951F920F920FB60F92112431
:100610000F931F932F933F934F935F936F937F930A
:100620008F939F93AF93BF93EF93FF93CF93DF93FA
:100630001F92CDB7DEB719820E94510267E0CE014A
:1006400001960E945F02382F369536953695932F86
:1006500096959570232F2570920F292F23709695CC
:1006600096958770920F891348C08981811145C082
:1006700080913A01831708F440C080E18A95F1F730
:100680005A9A529AA2E0AA95F1F700C000913B0154
:1006900010913C01B8E03B9F000D111D11245A98A8
:1006A000F8016581662321F0868197810E94E90225
:1006B0000E945902F0E1FA95F1F75A9852985A9A25
:1006C00080E18A95F1F7D80112966C911297662312
:1006D00069F013968D919C9114970E948902D8011C
:1006E000ED91FC91811105C082E004C0D801ED912B
:1006F000FC9188E080830E9451020F90DF91CF919E
:10070000FF91EF91BF91AF919F918F917F916F91E9
:100710005F914F913F912F911F910F910F900FBEBD
:100720000F901F9018950F931F93CF93DF932091F5
:100730003A0130E0281739070CF471C09C0193E0AE
:10074000220F331F9A95E1F7C0913B01D0913C01F4
:10075000C20FD31FF894529A5A9845E04A95F1F780
:100760000000982F969595708570890F982F93703B
:1007700086958695890F8901082B0E94590284E08D
:100780008A95F1F700C067E0802F0E94C90240E11E
:100790004A95F1F752985A9A4A9902C000C0FCCF84
:1007A00087E090E04A9B0EC0019751F4529A5A9A02
:1007B000E881F98181E08083789481E090E031C024
:1007C00000C0F0CF6D81662381F08E819F810E94F1
:1007D000890281110AC0529A5A9AE881F98182E00D
:1007E0008083789482E090E01CC00E94510280E2F5
:1007F0008A95F1F75A98529A40E14A95F1F76A8141
:10080000662321F08B819C810E94E9020E9459029B
:10081000E881F9811082789480E090E002C084E061
:1008200090E0DF91CF911F910F910895CF93DF93C7
:10083000A0E3B1E044E351E061E070E08D91E82F86
:10084000E295EF70F0E021A18F70EB0102C0CC0FB8
:10085000DD1F8A95E2F7CE019C2F9095922391A3FC
:1008600092A1892B82A34A175B0741F7DF91CF91B1
:10087000089508950C9439040C943A040C943904A6
:100880008091E001836088608093E0010E941604FB
:10089000A9E2B1E041E050E08D91E82FE295EF70E0
:1008A000F0E021A18F70BA0102C0660F771F8A9510
:1008B000E2F7CB01962F9095922391A392A1892BD9
:1008C00082A371E0A033B70739F7209A559A289A86
:1008D0005D9AE5E4F1E0ADE3B1E011921D9281E0B3
:1008E000ED34F807D1F70E94CD0580934D010C94AB
:1008F00086069F92AF92BF92CF92DF92EF92FF92C5
:100900000F931F93CF93DF9380910101811103C057
:10091000C4E0D0E002C0C0E0D0E0AE01435C5E4F76
:100920007A0180E3C82E81E0D82E8A01AA24A394FC
:10093000B12C25E0922EF4E3CF16F1E0DF0609F4A6
:100940004AC0F60181916F01E82FE295EF70F0E067
:1009500021A18F70A50102C0440F551F8A95E2F7AF
:10096000CA01922F982B91A392A18095892382A3EB
:1009700050EA5A95F1F7E9E2F1E020E040E050E07A
:100980003191A32FA295AF70B0E090968C9190E03A
:100990003F7002C0959587953A95E2F780FD07C0B4
:1009A000C501042E01C0880F0A94EAF702C080E056
:1009B00090E0282B4F5F5F4F4730510509F7F80152
:1009C0008081821719F02083909200010E94160402
:1009D0000F5F1F4FB0CF809100018823B1F081508D
:1009E00080930001811103C0CB5BDE4F07C08FE90C
:1009F0009FE00197F1F700C0000007C0F701919157
:100A00007F0199938F5F8430C9F781E0DF91CF91A7
:100A10001F910F91FF90EF90DF90CF90BF90AF901C
:100A20009F900895CF93DF9320910101211103C07E
:100A3000C0E0D0E002C0C4E0D0E00E94F70500971B
:100A400021F00297A1F4289812C0289ACB5BDE4FC0
:100A50008091580190915901A0915A01B0915B0188
:100A600088839983AA83BB8380E090E002C081E001
:100A700090E0DF91CF9108950E9479048091010167
:100A8000811103C0E4E0F0E002C0E0E0F0E0EB5BE5
:100A9000FE4F20E030E080E0D901A85ABE4F4C91D3
:100AA0009191491381E09C932F5F3F4F2430310592
:100AB00099F790915101890F809351010895CF9337
:100AC000DF9380914D01882309F440C00E9479048E
:100AD00080910101811103C0C4E0D0E002C0C0E0F8
:100AE000D0E0CB5BDE4F44E050E0BE0184E591E016
:100AF0000E94281D488159816A817B81409354015D
:100B00005093550160935601709357010E9412054E
:100B1000892BC1F05D9880914E018F5F80934E01CB
:100B2000863070F180910101811103C0E0E0F0E0B6
:100B300002C0E4E0F0E0EB5BFE4F10821182128213
:100B400013821EC05D9A10924E011AC00E943C058D
:100B500080910101811103C080E090E002C084E037
:100B600090E0FC01EB5BFE4F409154015091550128
:100B70006091560170915701408351836283738362
:100B80000E948E0681E0DF91CF910895E82FF0E07A
:100B9000EB5BFE4F808108950895E8EDF0E08081E1
:100BA000806180838AE18A95F1F700C08091D90045
:100BB000817008950E94CD05809301010E94CD05AA
:100BC000882319F00E94EB0502C00E94F105789479
:100BD00008950C94DA0563E070E082E091E00C94F3
:100BE000B10263E070E082E091E00C94BA020F93EE
:100BF0001F93CF93DF938C0190911B0180911A0179
:100C0000981761F082E090E00E949303EC01892B39
:100C100039F480911A0180931B0102C0C0E0D0E03A
:100C2000012B49F480914F0190915001892B19F4C7
:100C300080E090E002C081E090E00E949303892B65
:100C400049F48091510180931A0110925001109241
:100C50004F0106C081E090E09093500180934F01D6
:100C6000CE01DF91CF911F910F9108950C943A0618
:100C700081E0089581E0089508950C943C061F9347
:100C8000CF93DF9300D000D01F92CDB7DEB749835A
:100C90005A836B8330916F0189819A81311114C01D
:100CA000662359F0222349F00E94C213182F682F9F
:100CB00089819A810E946B1303C00E949613182F9A
:100CC00069817A81812F04C00E94C21369817A816F
:100CD0000F900F900F900F900F90DF91CF911F9179
:100CE0000C94ED06FC01262F4081518162817381B5
:100CF00084810C943F06CF93DF93EC0160E00E9467
:100D00007206BE01DF91CF910C943D060E94E7145C
:100D1000811102C00E9487150C943C040C943E047F
:100D200008950C94900681E008950C949306CF9357
:100D3000C82F0E9491068C2F0E949506CF9108958E
:100D400008950E94F10E0E94A0062FEF84E39CE01C
:100D5000215080409040E1F700C000000C94A5169F
:100D60000F931F93CF93DF93EC0161E00E94720613
:100D70008C01BE010E943606882349F1BE01C801DC
:100D80000E944D09882319F1BE01C8010E949F09E4
:100D90008823E9F0BE01C8010E94CA0A8823B9F07D
:100DA0008A81882369F001158CE5180731F00E3D22
:100DB0001C4531F40E9487150AC00E94A10607C095
:100DC000CE01DF91CF911F910F910C94380680E0F6
:100DD000DF91CF911F910F91089528E3829FC00169
:100DE0001124FC0127E0729FE00DF11D1124E60F94
:100DF000F11DEE0FFF1FEC50FF4F85919491089568
:100E0000CF93DF930E94ED060E94DE07EC0181156F
:100E100023E5920798F5811542E5940708F094C000
:100E2000C11580E2D807C0F4C11521E0D20708F04F
:100E3000C1C0C53AD10548F4C430D10508F0BAC0E4
:100E4000C130D10509F4B6C0B3C0CE01805E9109AE
:100E5000089708F4AFC0ACC0C11541E5D40708F04D
:100E60006EC0C11580E5D80708F04DC0C11520E45B
:100E7000D20708F49DC0DF70D06A9CC0811546E59A
:100E8000940700F5C11585E5D80708F077C0C115AE
:100E900024E5D20708F06DC0CE018370992721E0C8
:100EA00030E002C0220F331F8A95E2F78C2F86951F
:100EB000869540E2849FC0011124E901C82BD92BFB
:100EC000DA6878C081154AE5940778F4C11589E598
:100ED000D80708F05DC0C11528E5D20708F468C03E
:100EE000DC2FCC27C06FD06A65C090568115904228
:100EF00008F05EC08D2F8F710E947208DD27D062CE
:100F00008F71D82B57C0CE0174E0969587957A954E
:100F1000E1F783709C2F937021E030E002C0220F34
:100F2000331F9A95E2F73C68382BCF70C695C6956B
:100F300080E2C89FE0011124C22BD32B3BC0DC2FE1
:100F4000CC27C16FD06A36C08370992721E030E08A
:100F500002C0220F331F8A95E2F78C2F8695869563
:100F600040E2849FC0011124E901C82BD92BDC6821
:100F700021C0DC2FCC27C46FD06A1CC08C2F0E94EC
:100F800072088F71C82FD0E0DC2FCC27D06212C03E
:100F90008C2F8F700E94720894E0D695C7959A9511
:100FA000E1F7CF70D0E0DC2FCC27D069C82B02C08E
:100FB000C0E0D0E0CE01DF91CF9108958238910555
:100FC00069F1B0F48133910509F46DC048F48932B8
:100FD000910509F463C08A32910509F469C0089546
:100FE0008533910509F455C089339105B9F0089509
:100FF000833E910569F138F4803E9105B1F0823E5F
:10100000910509F10895863E9105A9F1873E910564
:10101000B9F1843E910509F064C023C0209100021B
:1010200020FD4FC021FD4DC008958091000280FD3C
:1010300044C08091010280FF44C08091000284FD81
:1010400042C083EE4DC08091000282FF38C0F5CFD0
:101050008091000282FD33C08091010280FD31C089
:10106000ECCF8091010281FF32C08091000284FDAB
:101070002AC087EE35C08091000283FF26C0F5CFDD
:101080008091000283FD21C08091010281FD1FC07B
:10109000ECCF8091000285FD1CC01DC08091000234
:1010A00085FD19C016C08091000286FD16C017C0CC
:1010B0008091000286FD13C010C089E311C082EE4A
:1010C0000FC080EE0DC080E00BC086EE09C084EE3C
:1010D00007C089E205C085E303C08AE201C081E35D
:1010E00090E008959091000292FF0DC0282F287182
:1010F000283019F4877F846006C0282F247124309B
:1011000011F48B7F886093FF0DC0282F2871283140
:1011100019F4877E846106C0282F2471243111F4CC
:101120008B7E88612091010220FF0DC0382F38711D
:10113000383019F4877F816006C0382F3171313023
:1011400011F48E7F886021FF0DC0282F287128316F
:1011500019F4877E816106C0282F2171213111F495
:101160008E7E886194FD877E0895AF92BF92CF9264
:10117000DF92EF92FF920F931F93CF93DF937C0147
:101180005B01C42FD22FFC0182818823F9F04093A8
:101190005E010E94641690935D0180935C0180E281
:1011A0008C0F883008F06EC0C77081E001C0880FD6
:1011B000CA95EAF7DF91CF911F910F91FF90EF90C1
:1011C000DF90CF90BF90AF900C949F0C80915E0108
:1011D000481335C080915C0190915D010E947016AA
:1011E0006C01B701C5010E94AA11C816D90638F5CD
:1011F00010E21D0FCD17B9F080E28C0F883040F45B
:10120000C77081E001C0880FCA95EAF70E94A60C5A
:10121000183058F581E09D2F977001C0880F9A957E
:10122000EAF70E949F0C802F0E948C0C183050F51A
:10123000D77081E001C0880FDA95EAF70AC080E232
:101240008C0F8830F8F4C77081E001C0880FCA9510
:10125000EAF7DF91CF911F910F91FF90EF90DF9010
:10126000CF90BF90AF900C94A60C802FDF91CF91C0
:101270001F910F91FF90EF90DF90CF90BF90AF90B4
:101280000C948C0CDF91CF911F910F91FF90EF90F8
:10129000DF90CF90BF90AF9008950F939C01CB014A
:1012A000233F4CE5340731F188F4283DFCE53F0746
:1012B000D9F0293D4CE5340779F1273D3C45A9F5A6
:1012C00006E221EE41EE67ED7CE52BC0253FFCE513
:1012D0003F07E1F0A8F0263F3C4539F507E225EE4F
:1012E00046EE66EF7CE51DC007E225EE45EE68EDB3
:1012F0007CE517C006E221EE40EE63EF7CE511C00D
:1013000007E225EE44EE64EF7CE50BC006E221EE39
:1013100042EE65EF7CE505C008E221E045EE69EDAF
:101320007CE50E94B50880E008C0FC01828188232A
:1013300019F010925E0101C081E00F910895CF93E2
:10134000DF93EC01FB018281882309F41FC1C230C5
:10135000FCE5DF0708F41BC1C6319CE5D90738F06E
:101360009E012A5F3C452930310508F010C10E94DA
:10137000FA149093010280930002C031ECE5DE077D
:1013800009F4C3C008F041C0C8308CE5D80709F49F
:101390009AC0F0F4C430ECE5DE0709F487C068F4C5
:1013A000C2308CE5D80709F477C0C330DC4509F0BA
:1013B000E3C080910002826076C0C630ECE5DE07B3
:1013C00009F46EC008F07BC08091000288606BC099
:1013D000CC308CE5D80709F485C068F4CA30ECE558
:1013E000DE0709F474C008F079C00E94F10E809104
:1013F0000002806858C0CE308CE5D80709F476C06A
:1014000008F07FC0809100028BC0CB3FECE5DE0787
:1014100009F44FC018F5C3318CE5D80709F47DC035
:1014200078F4C131ECE5DE0709F473C0C231DC4564
:1014300009F0A2C00E94F10E809100028F7733C0A4
:10144000C5318CE5D80709F472C008F486C0CA3FDC
:10145000DC4509F091C0809101023EC0CF3FFCE520
:10146000DF0709F45FC058F4CD3F9CE5D90709F4C4
:1014700044C008F43FC08091010282602DC0C13099
:10148000FDE5DF0709F475C008F45DC0C230DD4535
:1014900009F072C080E06EC080910002816003C0DC
:1014A0008091000280618093000266C080910002FA
:1014B00011C0809101028260809301025DC0809121
:1014C00000028062F0CF809100028064ECCF8091B6
:1014D000000288608460E7CF8160EECF80910002D7
:1014E0008E7FE1CF809100028D7FDDCF8091000261
:1014F000877FD9CF8091010218C0809101028D7F32
:10150000DBCF809100028F7ECECF809100028F7D55
:10151000CACF809100028F7BC6CF80910002877F67
:101520008B7FC1CF809101028D7F8E7FC5CF80914F
:10153000000282FB222720F991E0922790FB82F99A
:1015400090FB83F9B0CF80910102982F9095917014
:101550008E7F892B90FB81F9AFCF0E94F10E809195
:10156000000287FB222720F991E0922790FB87F960
:101570009ACF81E00E94891580910002909101022A
:101580000E940B150E94F10E80E001C081E0DF9106
:10159000CF910895CF93DF9386319C4541F5EB01C0
:1015A0000E944314982F8A8120911C0130911D01C3
:1015B000882379F09A7A81E009F480E080935F01D2
:1015C000911102C069E201C065E3C9010E94D01512
:1015D0000AC080915F01811102C069E201C065E328
:1015E000C9010E94D2150E94841480E001C081E0EC
:1015F000DF91CF91089590936501809364010895E0
:10160000E0916401F0916501309721F00190F08143
:10161000E02D099480E00895E0916401F091650166
:10162000309721F00280F381E02D099408952091F4
:101630006201309163012817390771F090936301BB
:1016400080936201E0916401F0916501309721F08F
:101650000680F781E02D0994089520916001309172
:1016600061012817390771F090936101809360013F
:10167000E0916401F0916501309721F00084F185DB
:10168000E02D0994089585B7806885BF85B7806887
:1016900085BF089508950C944A0B0C944B0B0C9441
:1016A0004A0B0E94430B0E94E9050C944D0B81E00C
:1016B00008950C94570B0E945B160E9440040E94F0
:1016C000B6160C944F0BAF92BF92CF92DF92EF926F
:1016D000FF920F931F93CF93DF93CDB7DEB72A9777
:1016E0000FB6F894DEBF0FBECDBF0E945F050E940B
:1016F000590B811111C08FEF89838A831B820E944D
:1017000064168160782F9D838C8349815A816B8117
:101710008D810E94F90B40C087E6A82E81E0B82E8B
:1017200000E010E0C02E802F0E94C605E82EF501D3
:10173000D1905F01D82631F40F5F1F4F083011059B
:1017400089F7D9CF8091E00181FD0E94CC0580E02E
:10175000FF24F3949D2D9F21D1F08E83CF82EF2023
:1017600081E009F480E088870E9464168160782F08
:101770009A8789874E815F8168858A850E94F90BE7
:10178000F801E959FE4F8081F826F08205C08F5F8D
:10179000FF0C8730F9F6D0CF0E94000B90916601C4
:1017A0008917B1F00E94000B809366012A960FB64C
:1017B000F894DEBF0FBECDBFDF91CF911F910F9187
:1017C000FF90EF90DF90CF90BF90AF900C94970672
:1017D0002A960FB6F894DEBF0FBECDBFDF91CF9132
:1017E0001F910F91FF90EF90DF90CF90BF90AF903F
:1017F0000895CF93DF93CDB7DEB72B970FB6F8944C
:10180000DEBF0FBECDBF4F83588769877A878B872E
:10181000DE01119686E0FD0111928A95E9F785E0D7
:10182000FE01379601900D928A95E1F749815A8120
:101830006B817C818D819E810E94AD112B960FB6AC
:10184000F894DEBF0FBECDBFDF91CF910895FC01AC
:10185000808191810E9404140895CF93882371F1AF
:10186000C82F8CEF8C0F813AD0F46C2F80911C0123
:1018700090911D010E949A15882349F06C2F809148
:101880001C0190911D010E94D2150E9484146C2F9E
:1018900080911C0190911D010E94D0150CC080E226
:1018A0008C0F883058F4C77081E001C0880FCA954A
:1018B000EAF70E944614CF910C948414CF910895B6
:1018C000882349F1682F8CEF860F813A38F4809194
:1018D0001C0190911D010E94D2150CC080E2860F60
:1018E000883050F4677081E001C0880F6A95EAF78C
:1018F0000E944C140C9484148BE5860F833020F4E2
:1019000080E090E00C94170B685A673120F480E077
:1019100090E00C942D0B0895CF93C82F0E942D0CAE
:10192000C93349F42FEF87EE93E021508040904077
:10193000E1F700C000008C2FCF910C94600C88233D
:1019400021F00E9446140C9484140895882321F0F9
:101950000E944C140C9484140895CF92DF92EF925D
:10196000FF920F931F93CF93DF937C01D62FC72F46
:10197000FC01158112951F70028101110E946314F0
:101980000E943C14882399F0002389F08C2F807FDB
:10199000803421F080E28D0F883048F082E00E9490
:1019A000CE140E943C1491E0D82ED92601C0D12C2F
:1019B000CC2EC2948FE0C8228C2D90E08C30910503
:1019C00008F08DC1FC01EA5AFF4F0C94221D8C2FA8
:1019D000807FCF70882311F0C295C07F002399F0DB
:1019E000CC2309F468C180E28D0F883010F0D1114A
:1019F00004C08C2F0E94461403C08C2F0E945614E2
:101A00000E94841458C18D2F0E94600CCC2309F4CD
:101A100066C180E28D0F883010F0D11104C08C2F88
:101A20000E944C1403C08C2F0E945C140E948414EA
:101A300056C18C2F807FCF70803211F0C295C07F4D
:101A4000DD2319F0D130C9F022C0002371F0112339
:101A500041F0113031F40E9469148C2B0E947114F2
:101A60003EC10E9469148C2B1DC0112319F0113046
:101A700009F435C10E947A1425C0002321F01630E4
:101A800008F02DC10EC0153008F029C11BC000237D
:101A900061F0112331F0F701858180FF0CC18F7057
:101AA00085838C2F0E949F0C1AC1112359F0D933C2
:101AB00009F012C1FFEF07EE13E0F15000401040B3
:101AC000E1F708C18C2F0E94A60C09C18C2F8370EE
:101AD00009F047C0011107C12D2F229526952770C7
:101AE000220F220F6D2F6F70862F90E0A0E0B0E0E4
:101AF000022E04C0880F991FAA1FBB1F0A94D2F799
:101B0000D4FF10C04FE050E060E070E004C0440F2C
:101B1000551F661F771F2A95D2F7409550956095FF
:101B2000709503C040E050E0BA01C695C695C370F9
:101B30008A019B01082B192B2A2B3B2BC901B801C9
:101B4000C23049F058F4C13019F00E948112CBC064
:101B50000E946F12C8C00E949312C5C00E946D12ED
:101B6000C2C0002319F08C2F817001C08695882394
:101B700009F4B9C02D2F229526952770220F220F28
:101B80006D2F6F70862F90E0A0E0B0E0022E04C0B1
:101B9000880F991FAA1FBB1F0A94D2F7D4FF10C049
:101BA0004FE050E060E070E004C0440F551F661F36
:101BB000771F2A95D2F7409550956095709503C090
:101BC00040E050E0BA01C695C695C3708A019B01FA
:101BD000082B192B2A2B3B2BC901B801C23049F025
:101BE00058F4C13019F00E9446137DC00E9434138E
:101BF0007AC00E94581377C00E94A71274C0CF7099
:101C0000002339F08C2F0E94CD128D2F0E949F0C43
:101C10006AC08D2F0E94A60C8C2F0E94EE1263C00A
:101C2000D23F01F128F4D03F41F0D13FA1F03FC0B5
:101C3000D33FF9F0D43F39F13AC0002341F01530D9
:101C400008F04DC08C2F8F710E94131348C01630BE
:101C500008F045C0F7CF002339F08C2F8F710E9418
:101C6000CD123DC00023C9F38C2F8F710E94EE125C
:101C700036C0002329F08C2F8F710E94B8122FC01C
:101C80000E94B3122CC0002349F0CF718C2F0E9408
:101C9000CD1263E08C2F0E94B91421C081E00E9414
:101CA000CE141230E0F082E00E94CE1418C000235F
:101CB00031F0112391F28D2F0E942D0C10C01123B1
:101CC00099F2D93349F41FEF27EE33E01150204049
:101CD0003040E1F700C000008D2F0E94600C88EFBB
:101CE0008C0D843020F40E94000B0E949706DD20AA
:101CF000C9F00E94381480FD15C0F70112820E94BD
:101D000032140E94CD12C7010E94B30E0E943214F9
:101D1000DF91CF911F910F91FF90EF90DF90CF90C7
:101D20000C94EE12DF91CF911F910F91FF90EF90E5
:101D3000DF90CF9008950F931F93CF93DF93EC0123
:101D4000688179818A810E940F148C010E946A1334
:101D50000E945B12B801CE010E94AD0CDF91CF91C1
:101D60001F910F910895CF93DF93EC0198818981A2
:101D70002B813C81232B31F08F3F31F481E09F3F59
:101D800019F403C081E001C080E080FD19C0CE01DC
:101D90000E94B00681110CC00E943C14882381F07F
:101DA0008A81882369F082E0DF91CF910C94CE1470
:101DB000CE010E949B0ECE01DF91CF910C947B0649
:101DC000DF91CF9108950E9463140E9466140C94D1
:101DD000841480911C0190911D010E94D4150C94D3
:101DE000E30E0E9453140C94E90EE92FE295EF7074
:101DF0004E2F50E0FA013297EE30F105B0F4EE5973
:101E0000FF4F0C94221D803F91F018F4883E68F437
:101E10000EC0843F51F40BC0883E48F0813F29F446
:101E200006C093FB882780F9089580E0089581E03B
:101E300008950E9404140E94F50E0895CF93DF9335
:101E400000D000D01F92CDB7DEB70F900F900F904B
:101E50000F900F90DF91CF910895CF93DF9300D033
:101E600000D000D0CDB7DEB726960FB6F894DEBF0F
:101E70000FBECDBFDF91CF9108951F93CF93DF9316
:101E8000C091700116E080917101C81799F0D0E0FF
:101E90001C9FF0011D9FF00D1124EE58FE4F408154
:101EA000518162817381848195810E942D0F2196D9
:101EB000C770E9CFDF91CF911F9108954091A201A2
:101EC0005091A3016091A4017091A5018091A60198
:101ED0009091A7010C942D0F0F931F93CF93DF9335
:101EE0008091A70182958F7009F05DC08091A40157
:101EF000882309F458C0809170011091710160919C
:101F0000A2017091A301C091A501D091A60191E019
:101F10006F3F09F090E0292F06E0811709F443C0D4
:101F2000209721F07F3F21F030E003C031E001C075
:101F3000322F90E030FD34C0089FF001099FF00D72
:101F40001124DF01AE58BE4F11963C911197371303
:101F500027C03C91361324C012963C911297311140
:101F60001FC013964D915C9114974C1B5D0B483C20
:101F70005105B0F48091A7018F7080618093A70113
:101F8000E958FE4F80818F708061808382EA91E002
:101F90000E94B30EDF91CF911F910F910C943D0FD2
:101FA00001968770BACFDF91CF911F910F9108955D
:101FB0009F92AF92BF92CF92DF92EF92FF920F93D8
:101FC0001F93CF93DF93CDB7DEB761970FB6F89429
:101FD000DEBF0FBECDBF8C0185E0F801DE011D968E
:101FE00001900D928A95E1F7F80140815181E280DC
:101FF0009091A2016091A3012091A5013091A601C9
:102000002115310531F06F3F31F481E09F3F19F424
:1020100003C081E001C080E0F82FF1709F2E80FDA9
:1020200046C1F801A380B48082EAC82E81E0D82E90
:10203000F090A401F501E21BF30BFF2009F4DFC0CF
:102040008091A701E83CF10508F09BC0282F207F74
:1020500009F052C0561313C0491311C0FE2CE110F1
:102060000EC08F7080618093A7010E945E0FC60131
:102070000E94B30E8091A701F801858358C1AB2857
:1020800031F05F3F31F481E04F3F19F403C081E04C
:1020900001C080E080FD03C081E08E2502C080E0A9
:1020A00090E0F82FF170FF2E80FF1CC0809170012E
:1020B0002091710136E0821709F417C190E0389F32
:1020C000F001399FF00D1124EE58FE4F6181561337
:1020D00006C06081461303C06281E61203C0019608
:1020E0008770E9CFFE2CEE2009F421C18091A70171
:1020F00081608093A7015AC0561306C0491304C0DB
:10210000E11002C0F8019FC04D875E878D859E85D6
:102110000E94190F882379F1EE2069F12091A7011F
:10212000822F82958F7090E0029774F08091A201C7
:102130009091A30198878F831986BB86AA862C87E6
:10214000CE0107960E94B30E86E0F801A2EAB1E044
:1021500001900D928A95E1F70E946C0F0E945E0F2C
:102160000DC0561729F14D875E878D859E850E948B
:10217000190F81112CC0C8010E94B30EFF24F394E3
:10218000D6C0282F207F69F77A2DB98AA88A6E2DAC
:1021900089890E941E0F82EA91E00E94B30E86E0B8
:1021A000F60111928A95E9F70E945E0FF12CBFC0EB
:1021B0004913D9CFE110D7CFF8018583C8010E9418
:1021C000B30E86E0F60111928A95E9F7B0C0EE20D1
:1021D00091F22091A701822F82958F7090E0029753
:1021E0000CF4B2CF8091A2019091A3019A838983CC
:1021F0001B82BD82AC822E83CE010196A3CFE83C28
:10220000F10508F047C0FE2CEE2009F4B4CF5613B8
:1022100030C049132EC02091A70120FD21C0822F7C
:1022200082958F70482F50E041155105C9F0F80193
:1022300025834F30510541F08F5F982F9295907F05
:10224000822F8F70892B8583C8010E94B30E86E090
:10225000F801A2EAB1E001900D928A95E1F742C03F
:1022600086E0F801A2EAB1E001900D928A95E1F7CB
:102270005EC04D875E878D859E850E94190F8111F6
:1022800063CF8091A70181608093A701C8010E945C
:10229000B30E4DC07A2DB98AA88A6E2D89890E9405
:1022A0001E0F86E0F60111928A95E9F71BC0EE2019
:1022B00009F461CF4D875E878D859E850E94190F39
:1022C000F82E882309F457CF86E0F801A2EAB1E09E
:1022D00001900D928A95E1F782EA91E00E94270C25
:1022E0000E946C0F0E945E0F22C04D875E878D8515
:1022F0009E850E940414292F22952F70223028F4E5
:102300009F7039F0811105C00BC0243028F49F70F4
:1023100049F4805E883020F0C8010E94B30E9F2CE3
:10232000F92C05C0F8019581907F99F7F9CF8F2D91
:1023300061960FB6F894DEBF0FBECDBFDF91CF918F
:102340001F910F91FF90EF90DF90CF90BF90AF90D3
:102350009F90089588EC90E008951F93CF93DF93AA
:10236000CDB7DEB72C970FB6F894DEBF0FBECDBF4A
:102370004F83588769877A878B879C87CE0107961A
:102380000E94D80F8823D1F09F8188852A853B85BC
:10239000232B31F08F3F31F481E09F3F19F403C0CC
:1023A00081E001C080E080FD47C04F81588569858C
:1023B0007A858B859C850E942D0F3EC086E0FE01AC
:1023C0003796DE01119601900D928A95E1F7FF8113
:1023D000E8856A857B856115710531F0EF3F31F441
:1023E00081E0FF3F19F403C081E001C080E080FD7F
:1023F00023C02091710130E0C901019687709927AF
:102400004091700150E084179507F1F1F983EA8358
:102410007D836C8396E0929FD001939FB00D112431
:10242000AE58BE4FFE01319601900D929A95E1F79C
:10243000809371010E943D0F16E080917001909190
:102440007101891771F1189FC00111248E589E4F98
:102450000E94D80F882329F1E09170011E9FF0019E
:102460001124EE58FE4F4081518162817381848135
:1024700095810E942D0F8091700190E001968770E8
:10248000992780937001D9CF0E94F10E10927101AB
:1024900010927001E2EAF1E086E0DF011D928A9578
:1024A000E9F72C960FB6F894DEBF0FBECDBFDF91D3
:1024B000CF911F910895089508950C945C120C9487
:1024C0005D120E945F126093CF017093D0018093E0
:1024D000D1019093D2010C94E30E0C9461120F93EE
:1024E0001F930091CF011091D0012091D101309123
:1024F000D201602B712B822B932B1F910F910C9487
:1025000061120F931F930091CF011091D001209180
:10251000D1013091D20160237123822393231F9133
:102520000F910C9461120F931F930091CF011091A2
:10253000D0012091D1013091D201602771278227EB
:1025400093271F910F910C9461120C945C120E94BE
:10255000A5126093CB017093CC018093CD01909331
:10256000CE010C94E30E60E070E0CB010C94A71256
:102570000F931F9341E050E060E070E08A019B01FF
:1025800004C0000F111F221F331F8A95D2F7C90103
:10259000B8011F910F910C94A7120F931F9341E064
:1025A00050E060E070E004C0440F551F661F771FC5
:1025B0008A95D2F78091CB019091CC01A091CD0169
:1025C000B091CE018A019B01082B192B2A2B3B2BA2
:1025D000C901B8011F910F910C94A7120F931F937B
:1025E00041E050E060E070E004C0440F551F661FFA
:1025F000771F8A95D2F74095509560957095809198
:10260000CB019091CC01A091CD01B091CE018A0176
:102610009B01082319232A233B23C901B8011F91D9
:102620000F910C94A7120F931F9341E050E060E0CC
:1026300070E004C0440F551F661F771F8A95D2F7BC
:102640008091CB019091CC01A091CD01B091CE01B0
:102650008A019B01082719272A273B27C901B801AE
:102660001F910F910C94A7120F931F930091CB0110
:102670001091CC012091CD013091CE01602B712BB6
:10268000822B932B1F910F910C94A7120F931F93E2
:102690000091CB011091CC012091CD013091CE0160
:1026A00060237123822393231F910F910C94A7120F
:1026B0000F931F930091CB011091CC012091CD017C
:1026C0003091CE0160277127822793271F910F91A8
:1026D0000C94A712089527E0929F800D1124E82FF3
:1026E000E695E695E695877051E001C0550F8A950D
:1026F000EAF785E0E89FF0011124E855FE4F20E05D
:1027000030E070E04081CB01022E02C096958795A3
:102710000A94E2F781708195842785238427819329
:102720002F5F3F4F2530310569F7089527E0929FCD
:10273000800D1124682F669566956695982F977081
:1027400085E0689FB001112440E050E080E0FB018B
:10275000E40FF51FE855FE4F208130E0092E02C03E
:10276000369527950A94E2F721703327042E01C08D
:10277000220F0A94EAF7822B4F5F5F4F45305105D5
:1027800031F70895BF92CF92DF92EF92FF920F93AD
:102790001F93CF93DF938C01C090CB01D090CC01DD
:1027A000E090CD01F090CE018091CF019091D001C9
:1027B000A091D101B091D201C82AD92AEA2AFB2AD4
:1027C000CFE1D0E0D701C6010C2E04C0B695A79585
:1027D000979587950A94D2F780FD04C0219790F7CA
:1027E000B12C07C0BC2EB8018C2F0E9400070197A6
:1027F000A9F38B2DDF91CF911F910F91FF90EF9057
:10280000DF90CF90BF900895CF93DF93EC010E94AB
:10281000C213BE010E940007DF91CF9108951F935C
:10282000CF93DF93EB0190916F01992321F0CB01BE
:102830000E94041413C0882349F0CB010E94C213E4
:10284000182F682FCE010E946B1304C0CB010E9489
:102850009613182FBE01812F0E940007DF91CF91A0
:102860001F9108958091D30185958595859508954B
:102870008091D301877008959091D301977081E082
:1028800009F480E008958091DF0108959091DF01BF
:10289000892B8093DF01089580959091DF01892332
:1028A0008093DF0108951092DF0108959091DE0179
:1028B000892B8093DE01089580959091DE01892314
:1028C0008093DE0108951092DE0108951092DD01DB
:1028D00008958091D401089508950C946C140C947B
:1028E0006D149091D401981721F08093D4010C9429
:1028F0006F1408958091D401882329F01092D40197
:1029000080E00C946F140895E0911C01F0911D017A
:102910008091DF018083E0911C01F0911D01908185
:102920008091DE01892B8083E0911C01F0911D01D3
:1029300090818091DD01892B80838091D40188234F
:1029400081F0E0911C01F0911D019081892B808321
:1029500080911C0190911D010E948E1581110E9491
:102960007A1480911C0190911D010C940C0B0C9415
:102970006C1498E0899F90011124262B2093D30199
:102980000E94CD128091D3018595859585950C94F3
:10299000B7141092D30180E00C94B7142091D301A6
:1029A000809582238093D301982F977079F430E03B
:1029B000482F082E000C550B2417350739F0859544
:1029C000859585950E94EE120C94C914089580E0B7
:1029D00090E00E943D1D21E08C3E9E4F09F020E0DA
:1029E000822F089582E090E00C94351D83E090E002
:1029F0000C94351DCF9384E090E00E94351DC82FC4
:102A000081E290E00E94351D2C2F30E0A901582B67
:102A1000CA01CF910895CF93C92F682F84E090E029
:102A20000E94431D6C2F81E290E0CF910C94431DD6
:102A3000AB01BC018FE090E00C94551DAB01BC01D3
:102A400083E190E00C94551D60E070E0CB010C94A4
:102A50001E1560E070E0CB010E9418150C9424153F
:102A60006CEE7EEF80E090E00E94611D60E082E00D
:102A700090E00E94431D60E083E090E00E94431DCF
:102A80001092CF011092D0011092D1011092D20178
:102A900060E084E090E00E94431D60E081E290E00D
:102AA0000E94431D60E085E090E00E94431D60E0CD
:102AB00086E090E00E94431D6FEF87E090E00E9467
:102AC000431D40E050E0BA0188E090E00E94551DAF
:102AD00060E08DE090E00E94431D40E050E0BA01CC
:102AE00088E190E00E94551D60E087E190E00E943F
:102AF000431D40E050E0BA018CE190E00E94551D7A
:102B000060E080E290E00E94431D0C9429150C9433
:102B10003015682F8EE090E00C94431DFC01329636
:102B200097E080E0915029F021912223D9F38F5F23
:102B3000F9CF0895662349F0FC0132960896219159
:102B4000621729F0E817F907D1F780E0089581E0CE
:102B500008959C01FC0132969FEF80E04191461759
:102B600089F09F3F19F4411101C0982F8F5F863083
:102B7000A9F79F3F39F0F901E90FF11D97FDFA958B
:102B80006283089508959C012A5F3F4FFC014281B2
:102B9000461301C01282019682179307B9F7089570
:102BA0000C94A9150C94C315029626E0FC01119211
:102BB0002A95E9F7089508950C94DB150C94DB151C
:102BC000CF930E94DE150E945F050E94DC15C0E0D5
:102BD0008C2F0E94C605811104C0CF5FC830C1F799
:102BE00001C081E0CF9108950C94DB150C94F4158D
:102BF0000E94F61580910602843049F11092E1019D
:102C000020E488E190E00FB6F894A89580936000E6
:102C10000FBE2093600080E00E9497060E94F61588
:102C200083B7817F846083BF83B7816083BF7894DB
:102C3000889583B78E7F83BF0FB6F894A89580914F
:102C40006000886180936000109260000FBE08955C
:102C50000C94DB150E94F10E0E94000B0E94970657
:102C60000C9428161F920F920FB60F9211248F9377
:102C70009F93AF93BF938091E101811113C0809125
:102C8000FC019091FD01A091FE01B091FF014196E0
:102C9000A11DB11D8093FC019093FD01A093FE0145
:102CA000B093FF01BF91AF919F918F910F900FBE95
:102CB0000F901F90189582E084BD93E095BD9AEF28
:102CC00097BD80936E0008952FB7F8948091FC0112
:102CD0009091FD01A091FE01B091FF012FBF0895D9
:102CE0009C014FB7F8948091FC019091FD01A09157
:102CF000FE01B091FF014FBF821B930B08957894A2
:102D00001F920F920FB60F9211248F939F93AF9340
:102D1000BF938091FC019091FD01A091FE01B091C3
:102D2000FF010196A11DB11D8093FC019093FD014F
:102D3000A093FE01B093FF01BF91AF919F918F913E
:102D40000F900FBE0F901F90189587E797E790930D
:102D50000108809300089AE088E10FB6F894A895DE
:102D6000809360000FBE90936000FFCF0E94E71435
:102D7000811102C00E9487150E94F2148093E00125
:102D80000E94FA1490930102809300020E94F614AC
:102D9000682F70E080E090E00E946D126091CB019E
:102DA0007091CC018091CD019091CE010C94A5122F
:102DB0008091EA01089508950895CF93DF9321E06B
:102DC0002093E9002FEF3091E800215035FD06C037
:102DD00035ED3A95F1F700002111F5CF2091E8008B
:102DE00025FF14C0EC0140E050E068E070E00E9474
:102DF00084188091E8008E778093E80088E0FE01D7
:102E0000A2EEB1E001900D928A95E1F7DF91CF91AA
:102E10000895089580910502811109C00E94151A34
:102E20000E94721A8091E20084608093E20008950B
:102E3000109205020895089508950C942A1642E010
:102E400061EC81E00C948E1980910802833009F4C2
:102E500060C030F4813071F0823009F499C0089577
:102E60008A3009F485C08B3009F46BC0893009F0D1
:102E7000A7C020C080910702813A09F0A1C08091CB
:102E8000E800877F8093E80080910B0290910C020C
:102E9000892B21F468E082EE91E003C060E080E0DD
:102EA00090E070E00E94CF188091E8008B778093CB
:102EB000E800089580910702813209F081C0809175
:102EC0000B0290910C02892B09F07AC08091E800E6
:102ED000877F8093E8008091E80082FD05C08091A3
:102EE00006028111F8CF6CC02091F3008091F200AE
:102EF00090E0922B029729F48091F1008B7F813032
:102F000021F48091F1008093EA018091E8008B77B1
:102F100053C080910702813A09F052C080910B02A0
:102F200090910C02892B09F04BC08091E800877FBB
:102F30008093E8008091E80080FFFCCF8091280119
:102F400036C0809107028132D9F580910B029091B1
:102F50000C02892BA9F58091E800877F8093E80017
:102F60000E94C31980910902809328010C94F10EEC
:102F700080910702813221F58091E800877F80935C
:102F8000E8000E94C31980910A028093EB01089522
:102F900080910702813AA1F48091E800877F8093B5
:102FA000E8008091E80080FFFCCF8091EB018093E6
:102FB000F1008091E8008E778093E8000C94C319AB
:102FC000089584B7877F84BF0FB6F894A895809141
:102FD0006000886180936000109260000FBE90E0F6
:102FE00080E80FB6F89480936100909361000FBE63
:102FF0000E94510B0E94151A0E94721A8091E200E1
:1030000084608093E20078940E94071D0E945B0B0D
:103010008EE191E00E94FB0A80910602853069F4FE
:103020000E94F815809104028823B1F30E94E015F4
:10303000882391F30E946E18EFCF0E94630BECCFB0
:103040000C942218292F332723303105C1F058F46E
:103050002130310579F022303105C1F582E290E06E
:103060002CED32E037C02132310511F12232310529
:1030700031F12CC082E190E02EEF32E02BC0992795
:103080008130910561F040F08230910559F003974D
:10309000E9F4E4EBF2E008C0E8EDF2E005C0EAECA8
:1030A000F2E002C0EAEBF2E0849190E09F0112C0EE
:1030B000672B61F489E090E02EEE32E00BC0672BC5
:1030C00029F480E490E020E133E004C080E090E067
:1030D00020E030E0FA0131832083089580E189BD4A
:1030E00082E189BD09B400FEFDCF8091D8008F7DBB
:1030F0008093D8008091E00082608093E00080910E
:10310000E00081FDFCCF0895CF92DF92EF92FF9215
:103110000F931F93CF93DF93EC018B017A010E94F1
:10312000E219811133C0E114F10439F0F701808113
:103130009181081B190BC80FD91FC12CD12C011567
:10314000110519F18091E80085FD16C08091E80015
:103150008E778093E800E114F10449F0F701808153
:103160009181C80ED91ED182C08285E00FC00E9415
:10317000E219882321F30AC089918093F10001505C
:103180001109FFEFCF1ADF0ADACF80E0DF91CF918C
:103190001F910F91FF90EF90DF90CF9008952091B5
:1031A0000D0230910E022617370748F061157105A0
:1031B00039F42091E8002E772093E80001C0B9018E
:1031C000FC0120E06115710579F1809106028823E8
:1031D000F1F18530F1F18091E80083FD3CC08091F0
:1031E000E80082FD2EC08091E80080FFEBCF2091A7
:1031F000F3008091F20090E0922B6115710551F07F
:103200008830910538F421912093F10061507109C3
:103210000196F3CF21E0089709F020E08091E800C3
:103220008E778093E800CECF2111CFCF0AC0809156
:103230000602882361F0853061F08091E80083FD0B
:103240000AC08091E80082FFF2CF80E0089582E01A
:10325000089583E0089581E0089520910D02309152
:103260000E022617370748F06115710539F42091D1
:10327000E8002E772093E80001C0B901FC0120E0AE
:103280006115710591F180910602882309F440C00F
:10329000853009F43FC08091E80083FD3DC08091F6
:1032A000E80082FD2FC08091E80080FFE9CF2091E7
:1032B000F3008091F20090E0922B6115710559F0B6
:1032C0008830910540F424912093F10031966150AB
:1032D00071090196F2CF21E0089709F020E0809172
:1032E000E8008E778093E800CBCF2111CCCF0AC0C5
:1032F00080910602882361F0853061F08091E800BA
:1033000083FD0AC08091E80082FFF2CF80E008953B
:1033100082E0089583E0089581E00895982F973022
:1033200068F59093E900981739F07091EC002091BE
:10333000ED005091F00003C0242F762F50E021FDC6
:1033400002C09F5FECCF3091EB003E7F3093EB00EB
:103350003091ED003D7F3093ED003091EB00316016
:103360003093EB007093EC002093ED005093F0004D
:103370002091EE0027FDE5CF80E008958F708093C7
:10338000E90081E008958091070287FF11C08091D4
:10339000E80082FD05C0809106028111F8CF11C0BE
:1033A0008091E8008B770BC080910602882349F05A
:1033B0008091E80080FFF8CF8091E8008E778093BD
:1033C000E80008952091E4003091E50095E64091F1
:1033D000EC00842F817040FF23C08091E80080FDC5
:1033E0001DC080910602882399F0853099F0809164
:1033F000EB0085FD11C04091E4005091E5002417D9
:10340000350729F3915011F09A01E1CF84E0089536
:1034100082E0089583E0089581E0089580E00895B2
:103420004091E80042FFDDCF08950E94831A0E9478
:103430008B1AE0EEF0E0808181608083E8EDF0E0BF
:1034400080818F77808319BCA7EDB0E08C918E7F4F
:103450008C9380818F7E80831092050208950F9354
:103460001F93CF93DF930E94831A0E948B1AC8ED9B
:10347000D0E088818F77888388818068888388817D
:103480008F7D888319BC109206021092020210925E
:1034900004021092030200EE10E0F80180818B7F9D
:1034A000808388818160888342E060E080E00E94C0
:1034B0008E19E1EEF0E080818E7F8083E2EEF0E015
:1034C000808181608083808188608083F801808131
:1034D0008E7F8083888180618883DF91CF911F9167
:1034E0000F910895E8EDF0E080818F7E8083E7ED15
:1034F000F0E080818160808384E082BF81E08093FE
:1035000005020C942F1AE8EDF0E080818E7F808315
:103510001092E20008951092DA001092E1000895EE
:103520001F920F920FB60F9211242F933F934F9338
:103530005F936F937F938F939F93AF93BF93EF931B
:10354000FF938091E10082FF0BC08091E20082FF37
:1035500007C08091E1008B7F8093E1000E94061DEF
:103560008091DA0080FF1FC08091D80080FF1BC0CF
:103570008091DA008E7F8093DA008091D90080FFFD
:103580000DC080E189BD82E189BD09B400FEFDCF97
:1035900081E0809306020E940A1705C019BC1092B0
:1035A00006020E9418178091E10080FF19C08091E7
:1035B000E20080FF15C08091E2008E7F8093E200E0
:1035C0008091E20080618093E2008091D800806267
:1035D0008093D80019BC85E0809306020E941C17D6
:1035E0008091E10084FF30C08091E20084FF2CC014
:1035F00080E189BD82E189BD09B400FEFDCF8091E3
:10360000D8008F7D8093D8008091E1008F7E8093D9
:10361000E1008091E2008F7E8093E2008091E200E1
:1036200081608093E20080910202882311F084E09F
:1036300007C08091E30087FD02C081E001C083E004
:10364000809306020E941D178091E10083FF29C02C
:103650008091E20083FF25C08091E100877F809305
:10366000E10082E080930602109202028091E10064
:103670008E7F8093E1008091E2008E7F8093E20054
:103680008091E20080618093E20042E060E080E0AF
:103690000E948E198091F00088608093F0000E9453
:1036A0001B17FF91EF91BF91AF919F918F917F91E8
:1036B0006F915F914F913F912F910F900FBE0F909F
:1036C0001F9018951F920F920FB60F9211242F93EF
:1036D0003F934F935F936F937F938F939F93AF939A
:1036E000BF93CF93DF93EF93FF93C091E900CF7027
:1036F0008091EC00D82FD17080FDD0E81092E900C5
:103700008091F000877F8093F00078940E94A61B40
:103710001092E9008091F00088608093F000CD2B3A
:10372000CF70C093E900FF91EF91DF91CF91BF91EE
:10373000AF919F918F917F916F915F914F913F9149
:103740002F910F900FBE0F901F9018951F93CF933E
:10375000DF93CDB7DEB7AA970FB6F894DEBF0FBEE2
:10376000CDBFE7E0F2E08091F100819322E0EF30FD
:10377000F207C9F70E9424178091E80083FF2EC149
:103780008091070290910802492F50E04A3051057C
:1037900008F024C1FA01E059FF4F0C94221D803833
:1037A00021F0823809F01AC108C08091030290917B
:1037B0000402992389F082600FC080910B028F7000
:1037C000873008F00BC18093E9008091EB0085FB06
:1037D000882780F91092E9009091E800977F9093F4
:1037E000E8008093F1001092F100D1C0282F2D7FC6
:1037F00009F0F4C0882319F0823061F0EFC08091A5
:103800000902813009F0EAC0933009F080E080932A
:1038100004022EC08091090281112AC080910B02FE
:103820008F702FEF280F263008F0D8C08093E90062
:103830002091EB0020FF1CC0933021F48091EB001D
:10384000806214C09091EB0090619093EB0021E0B6
:1038500030E0A90102C0440F551F8A95E2F740935A
:10386000EA001092EA008091EB0088608093EB0000
:103870001092E9008091E800877F8093E8000E9421
:10388000C319ACC08111AAC0109109021F778091A1
:10389000E3008078812B8093E3008091E800877FAC
:1038A0008093E8000E94C3198091E80080FFFCCF5C
:1038B0008091E30080688093E300111102C082E0F0
:1038C00001C083E08093060289C08058823008F0EE
:1038D00085C08091090290910A028C3D53E09507C2
:1038E00079F583E08A838AE289834FB7F894DE0111
:1038F000139620E03EE051E2E32FF0E050935700B2
:10390000E49120FF03C0E295EF703F5FEF708E2FD0
:1039100090E0EA3010F0C79601C0C0968D939D9359
:103920002F5F243149F74FBF8091E800877F809354
:10393000E8006AE270E0CE0101960E94CF1816C03E
:1039400060910B0270910C02AE014F5F5F4F0E94BD
:103950002018BC01892B09F441C09091E800977FA1
:103960009093E80089819A810E942D198091E80046
:103970008B778093E80032C0803881F58091E80031
:10398000877F8093E800809102028093F10080910C
:10399000E8008E7772CF811121C080910902909149
:1039A0000A0299270297D4F48091E800877F8093D8
:1039B000E80080910902809302020E94C31980915D
:1039C0000202811106C08091E30087FD02C081E000
:1039D00001C084E0809306020E941F178091E800D6
:1039E00083FF0AC08091E800877F8093E800809180
:1039F000EB0080628093EB00AA960FB6F894DEBFCE
:103A00000FBECDBFDF91CF911F9108950895CF9341
:103A1000809106028823A1F0C091E900CF709091B7
:103A2000EC00892F817090FD80E8C82B1092E9008E
:103A30008091E80083FD0E94A61BCF70C093E9002F
:103A4000CF910895EE0FFF1F0590F491E02D09949A
:103A5000FB01DC0104C08D910190801921F44150DB
:103A60005040C8F7881B990B0895F999FECF92BD75
:103A700081BDF89A992780B50895A8E1B0E042E0A9
:103A800050E00C94691D262FF999FECF92BD81BD9F
:103A9000F89A019700B4021639F01FBA20BD0FB68C
:103AA000F894FA9AF99A0FBE08950396272F0E9468
:103AB000441D0E94431D252F0E94441D242F0C9459
:103AC000441D0196272F0E94441D0C94431DDC01C8
:103AD000CB01FC01F999FECF06C0F2BDE1BDF89A19
:103AE000319600B40D9241505040B8F70895F894C3
:023AF000FFCF06
:103AF2000501530100000001510153010454010169
:103B020051015201000000045801FFFFD501D816EF
:103B1200DD16DB160917DC1601F4F5F6F731333240
:083B2200946697C60000000044
:00000001FF
