:100000000C9470010C94B7010C94B7010C94CB02C2
:100010000C94B7010C94B7010C94B7010C94B70180
:100020000C94B7010C94B7010C942C1A0C94FE1A82
:100030000C94C2150C94B7010C94B7010C94B70141
:100040000C94B7010C94B7010C94B7010C94B70150
:100050000C94B7010C940F160C94B7010C94B701D3
:100060000C94B7010C94B7010C94B7010C94B70130
:100070000C94B7010C94B7010C94B7010C94B70120
:100080000C94B7010C94B7010C94B7010C94B70110
:100090000C94B9010C94B7010C94B7010C94B701FE
:1000A0000C94B7010C94B7010C94B7017A0C7A0C3C
:1000B000AC0CAC0C020E020E020E020EF90C920DEC
:1000C000A30DA30D960E960EA80EA80E9F0EA80EB9
:1000D000A80EA80E960E960EA40EA80EA80EA40E9C
:1000E0006B1B921B8A1C921B8A1CDE1B011C8A1C28
:1000F000581C671CE30014001A00080015001700C4
:1001000000002B0004001600070009000A00000090
:10011000E2001D001B0006001900050000000000A1
:1001200000003504E100E000025100002A00130045
:1001300012000C0018001C000000340033000F00F7
:100140000E000D000B0000002800380037003600BC
:10015000100011000000000000002C00E500E40089
:1001600001510000290091003A003B003C003D0095
:1001700000002C0090003E003F00400041000000C5
:100180000100000042004300440045000000000060
:100190000000010001000100E20000004C004600E8
:1001A00020001F001E00270000002C00000023007C
:1001B00022002100000000000000000026002500B1
:1001C0002400000000000000000001000100010008
:1001D000E600000035001E021F022002210222025A
:1001E00000002C005001500052004F004F01000051
:1001F00001004A00500451004F044D00000000006F
:100200000000010001000100E200000001002702DF
:10021000260225022402230200002C002E022D00BB
:1002200030022F020000000001002E002D023000DD
:100230002F0000000000000000000100010001008C
:10024000E60000000403300000000E0363006C00B1
:10025000610077003400340000000C037900660070
:1002600075006B00750000000403090409022200F8
:10027000010100A0FA0904000001030101000921A5
:10028000110100012240000705810308000A120144
:10029000100100000008EDFE6030010001020301C2
:1002A00005010906A101050719E029E71500250147
:1002B00095087501810295017508810105071900EE
:1002C00029FF150026FF009506750881000508190D
:1002D000012905950575019102950175039101C0EC
:1002E00011241FBECFEFDAE0DEBFCDBF04B603FEA0
:1002F00027C08091100290911102A0911202B0913A
:1003000013028730904BA740B04BD1F410921002EB
:1003100010921102109212021092130214BE84B7AE
:10032000877F84BF0FB6F894A8958091600088619C
:1003300080936000109260000FBEE0E0F8E3099542
:1003400011E0A0E0B1E0EAE2FAE302C005900D920C
:10035000A833B107D9F722E0A8E3B1E001C01D92AC
:10036000A031B207E1F70E946E170C94131D0C9494
:1003700000001F920F920FB60F9211248F939F933C
:10038000EF93FF938091B900887F803869F038F44B
:100390008823C9F18036C9F51092380136C0883AF1
:1003A00009F1883BF9F031C080913801811111C009
:1003B0008091BB008093390180913901803120F018
:1003C0001092390180E001C081E091E09093380102
:1003D0001DC0E0913901F0E08091BB00E351FE4F78
:1003E000808308C0E0913901F0E0E351FE4F808145
:1003F0008093BB008091390190E001968F7099271E
:100400008093390102C01092BC0081E09091BC0041
:100410008295880F880F807C9568892B8093BC001B
:10042000FF91EF919F918F910F900FBE0F901F90B2
:1004300018958EE14A9B02C08150E1F74A9BFECF9E
:1004400008955A9880E28A95F1F75A9A0895FC0126
:100450002AE02A95F1F790E020E080E031E02617CD
:1004600079F040E14A95F1F7880F4A9B02C081601C
:10047000932700C0000040E14A95F1F72F5FEFCFCE
:1004800020E12A95F1F729B100C0000030E13A954A
:10049000F1F722FB222720F992272081920F9083E7
:1004A0000895EF92FF920F931F93CF93DF931F92C4
:1004B000CDB7DEB719828C017C01E60EF11C0E155A
:1004C0001F0559F00E94190268E0CE0101960E94B2
:1004D0002702F80181938F01F2CF81E09981911178
:1004E00080E00F90DF91CF911F910F91FF90EF90DF
:1004F000089590933C0180933B0160933A01529A96
:100500005A9A089590933C0180933B0160933A017D
:1005100052985A9AEA9AE9E6F0E080818F7C8083CB
:100520000895615091E001C0990F6A95EAF720E0C3
:1005300031E0992361F0492F482319F05A9A232773
:1005400001C05A9840E24A95F1F79695F2CF2223DE
:1005500011F05A9A01C05A9880E28A95F1F75A9898
:100560000895FF920F931F93CF93DF93EC018C01BB
:10057000060F111DC017D10741F0F9900E9421020A
:1005800068E08F2D0E949102F5CFDF91CF911F91EE
:100590000F91FF9008951F920F920FB60F921124A2
:1005A0000F931F932F933F934F935F936F937F937B
:1005B0008F939F93AF93BF93EF93FF93CF93DF936B
:1005C0001F92CDB7DEB719820E94190267E0CE01F3
:1005D00001960E942702382F369536953695932F2F
:1005E00096959570232F2570920F292F237096953D
:1005F00096958770920F891348C08981811145C0F3
:1006000080913A01831708F440C080E18A95F1F7A0
:100610005A9A529AA2E0AA95F1F700C000913B01C4
:1006200010913C01B8E03B9F000D111D11245A9818
:10063000F8016581662321F0868197810E94B102CD
:100640000E942102F0E1FA95F1F75A9852985A9ACD
:1006500080E18A95F1F7D80112966C911297662382
:1006600069F013968D919C9114970E945102D801C4
:10067000ED91FC91811105C082E004C0D801ED919B
:10068000FC9188E080830E9419020F90DF91CF9146
:10069000FF91EF91BF91AF919F918F917F916F915A
:1006A0005F914F913F912F911F910F910F900FBE2E
:1006B0000F901F9018950F931F93CF93DF93209166
:1006C0003A0130E0281739070CF471C09C0193E01F
:1006D000220F331F9A95E1F7C0913B01D0913C0165
:1006E000C20FD31FF894529A5A9845E04A95F1F7F1
:1006F0000000982F969595708570890F982F9370AC
:1007000086958695890F8901082B0E94210284E035
:100710008A95F1F700C067E0802F0E94910240E1C6
:100720004A95F1F752985A9A4A9902C000C0FCCFF4
:1007300087E090E04A9B0EC0019751F4529A5A9A72
:10074000E881F98181E08083789481E090E031C094
:1007500000C0F0CF6D81662381F08E819F810E9461
:10076000510281110AC0529A5A9AE881F98182E0B5
:100770008083789482E090E01CC00E94190280E29D
:100780008A95F1F75A98529A40E14A95F1F76A81B1
:10079000662321F08B819C810E94B1020E9421027C
:1007A000E881F9811082789480E090E002C084E0D2
:1007B00090E0DF91CF911F910F910895CF93DF9338
:1007C000A0E3B1E044E351E061E070E08D91E82FF7
:1007D000E295EF70F0E021A18F70EB0102C0CC0F29
:1007E000DD1F8A95E2F7CE019C2F9095922391A36D
:1007F00092A1892B82A34A175B0741F7DF91CF9122
:10080000089508950C9401040C9402040C940104BE
:100810008091E001836088608093E0010E94DE03A4
:10082000A9E2B1E041E050E08D91E82FE295EF7050
:10083000F0E021A18F70BA0102C0660F771F8A9580
:10084000E2F7CB01962F9095922391A392A1892B49
:1008500082A371E0A033B70739F7209A559A289AF6
:100860005D9AE5E4F1E0ADE3B1E011921D9281E023
:10087000ED34F807D1F70E94950580934D010C9453
:100880004E069F92AF92BF92CF92DF92EF92FF926D
:100890000F931F93CF93DF9380910101811103C0C8
:1008A000C4E0D0E002C0C0E0D0E0AE01435C5E4FE7
:1008B0007A0180E3C82E81E0D82E8A01AA24A3946D
:1008C000B12C25E0922EF4E3CF16F1E0DF0609F417
:1008D0004AC0F60181916F01E82FE295EF70F0E0D8
:1008E00021A18F70A50102C0440F551F8A95E2F720
:1008F000CA01922F982B91A392A18095892382A35C
:1009000050EA5A95F1F7E9E2F1E020E040E050E0EA
:100910003191A32FA295AF70B0E090968C9190E0AA
:100920003F7002C0959587953A95E2F780FD07C024
:10093000C501042E01C0880F0A94EAF702C080E0C6
:1009400090E0282B4F5F5F4F4730510509F7F801C2
:100950008081821719F02083909200010E94DE03AB
:100960000F5F1F4FB0CF809100018823B1F08150FD
:1009700080930001811103C0CB5BDE4F07C08FE97C
:100980009FE00197F1F700C0000007C0F7019191C7
:100990007F0199938F5F8430C9F781E0DF91CF9118
:1009A0001F910F91FF90EF90DF90CF90BF90AF908D
:1009B0009F900895CF93DF9320910101211103C0EF
:1009C000C0E0D0E002C0C4E0D0E00E94BF050097C4
:1009D00021F00297A1F4289812C0289ACB5BDE4F31
:1009E0008091580190915901A0915A01B0915B01F9
:1009F00088839983AA83BB8380E090E002C081E072
:100A000090E0DF91CF9108950E944104809101010F
:100A1000811103C0E4E0F0E002C0E0E0F0E0EB5B55
:100A2000FE4F20E030E080E0D901A85ABE4F4C9143
:100A30009191491381E09C932F5F3F4F2430310502
:100A400099F790915101890F809351010895CF93A7
:100A5000DF9380914D01882309F440C00E94410436
:100A600080910101811103C0C4E0D0E002C0C0E068
:100A7000D0E0CB5BDE4F44E050E0BE0184E591E086
:100A80000E94C41C488159816A817B814093540132
:100A90005093550160935601709357010E94DA04F8
:100AA000892BC1F05D9880914E018F5F80934E013C
:100AB000863070F180910101811103C0E0E0F0E027
:100AC00002C0E4E0F0E0EB5BFE4F10821182128284
:100AD00013821EC05D9A10924E011AC00E94040536
:100AE00080910101811103C080E090E002C084E0A8
:100AF00090E0FC01EB5BFE4F409154015091550199
:100B000060915601709157014083518362837383D2
:100B10000E94560681E0DF91CF910895E82FF0E022
:100B2000EB5BFE4F808108950895E8EDF0E0808151
:100B3000806180838AE18A95F1F700C08091D900B5
:100B4000817008950E949505809301010E9495058A
:100B5000882319F00E94B30502C00E94B905789459
:100B600008950C94A20563E070E082E091E00C949B
:100B7000790263E070E082E091E00C9482020F93CE
:100B80001F93CF93DF938C0190911B0180911A01E9
:100B9000981761F082E090E00E945B03EC01892BE2
:100BA00039F480911A0180931B0102C0C0E0D0E0AB
:100BB000012B49F480914F0190915001892B19F438
:100BC00080E090E002C081E090E00E945B03892B0E
:100BD00049F48091510180931A01109250011092B2
:100BE0004F0106C081E090E09093500180934F0147
:100BF000CE01DF91CF911F910F9108950C940206C1
:100C000081E0089581E0089508950C9404061F93EF
:100C1000CF93DF9300D000D01F92CDB7DEB74983CA
:100C20005A836B8330916F0189819A81311114C08D
:100C3000662359F0222349F00E945213182F682F7F
:100C400089819A810E94FB1203C00E942613182FEB
:100C500069817A81812F04C00E94521369817A814F
:100C60000F900F900F900F900F90DF91CF911F91E9
:100C70000C94B506FC01262F40815181628173815D
:100C800084810C940706CF93DF93EC0160E00E940F
:100C90003A06BE01DF91CF910C9405060E947714AD
:100CA000811102C00E9417150C9404040C940604D0
:100CB00008950C94580681E008950C945B06CF9338
:100CC000C82F0E9459068C2F0E945D06CF9108956F
:100CD00008950E94840E0E9468062FEF84E39CE032
:100CE000215080409040E1F700C000000C94351680
:100CF0000F931F93CF93DF93EC0161E00E943A06BC
:100D00008C01BE010E94FE05882349F1BE01C80185
:100D10000E94F108882319F1BE01C8010E9432091E
:100D20008823E9F0BE01C8010E945D0A8823B9F05A
:100D30008A81882369F001158CE5180731F00E3D92
:100D40001C4531F40E9417150AC00E94690607C0AD
:100D5000CE01DF91CF911F910F910C94000680E09E
:100D6000DF91CF911F910F91089528E3829FC001D9
:100D70001124FC0127E0729FE00DF11D1124E60F04
:100D8000F11DEE0FFF1FEC50FF4F859194910895D8
:100D9000CF93DF930E94B5060E94A607EC01811550
:100DA00023E5920798F5811542E5940708F094C071
:100DB000C11580E2D807C0F4C11521E0D20708F0C0
:100DC000C1C0C53AD10548F4C430D10508F0BAC055
:100DD000C130D10509F4B6C0B3C0CE01805E91091F
:100DE000089708F4AFC0ACC0C11541E5D40708F0BE
:100DF0006EC0C11580E5D80708F04DC0C11520E4CC
:100E0000D20708F49DC0DF70D06A9CC0811546E50A
:100E1000940700F5C11585E5D80708F077C0C1151E
:100E200024E5D20708F06DC0CE018370992721E038
:100E300030E002C0220F331F8A95E2F78C2F86958F
:100E4000869540E2849FC0011124E901C82BD92B6B
:100E5000DA6878C081154AE5940778F4C11589E508
:100E6000D80708F05DC0C11528E5D20708F468C0AE
:100E7000DC2FCC27C06FD06A65C090568115904298
:100E800008F05EC08D2F8F710E943A08DD27D06276
:100E90008F71D82B57C0CE0174E0969587957A95BF
:100EA000E1F783709C2F937021E030E002C0220FA5
:100EB000331F9A95E2F73C68382BCF70C695C695DC
:100EC00080E2C89FE0011124C22BD32B3BC0DC2F52
:100ED000CC27C16FD06A36C08370992721E030E0FB
:100EE00002C0220F331F8A95E2F78C2F86958695D4
:100EF00040E2849FC0011124E901C82BD92BDC6892
:100F000021C0DC2FCC27C46FD06A1CC08C2F0E945C
:100F10003A088F71C82FD0E0DC2FCC27D06212C0E6
:100F20008C2F8F700E943A0894E0D695C7959A95B9
:100F3000E1F7CF70D0E0DC2FCC27D069C82B02C0FE
:100F4000C0E0D0E0CE01DF91CF91089582389105C5
:100F500069F1B0F48133910509F46DC048F4893228
:100F6000910509F463C08A32910509F469C00895B6
:100F70008533910509F455C089339105B9F0089579
:100F8000833E910569F138F4803E9105B1F0823ECF
:100F9000910509F10895863E9105A9F1873E9105D5
:100FA000B9F1843E910509F064C023C0209101028B
:100FB00020FD4FC021FD4DC008958091010280FDAC
:100FC00044C08091020280FF44C08091010284FDF0
:100FD00042C083EE4DC08091010282FF38C0F5CF40
:100FE0008091010282FD33C08091020280FD31C0F8
:100FF000ECCF8091020281FF32C08091010284FD1A
:101000002AC087EE35C08091010283FF26C0F5CF4C
:101010008091010283FD21C08091020281FD1FC0E9
:10102000ECCF8091010285FD1CC01DC080910102A2
:1010300085FD19C016C08091010286FD16C017C03B
:101040008091010286FD13C010C089E311C082EEB9
:101050000FC080EE0DC080E00BC086EE09C084EEAC
:1010600007C089E205C085E303C08AE201C081E3CD
:1010700090E008959091010292FF0DC0282F2871F1
:10108000283019F4877F846006C0282F247124300B
:1010900011F48B7F886093FF0DC0282F28712831B1
:1010A00019F4877E846106C0282F2471243111F43D
:1010B0008B7E88612091020220FF0DC0382F38718D
:1010C000383019F4877F816006C0382F3171313094
:1010D00011F48E7F886021FF0DC0282F28712831E0
:1010E00019F4877E816106C0282F2171213111F406
:1010F0008E7E886194FD877E08950F931F93CF9312
:10110000DF93C62FD42F122FFC0182818823C9F0D0
:1011100060935E010E94F41590935D0180935C01E1
:1011200080E28C0F883008F057C0C77081E001C0A2
:10113000880FCA95EAF7DF91CF911F910F910C9418
:10114000320C80915E01681330C080915C019091F7
:101150005D010E940016883C910538F500E20D0FF4
:10116000CD17B9F080E28C0F883040F4C77081E071
:1011700001C0880FCA95EAF70E94390C083028F59B
:1011800081E09D2F977001C0880F9A95EAF70E9421
:10119000320C812F0E941F0C0830F0F4D77081E0D0
:1011A00001C0880FDA95EAF70AC080E28C0F883018
:1011B00098F4C77081E001C0880FCA95EAF7DF9103
:1011C000CF911F910F910C94390C812FDF91CF910A
:1011D0001F910F910C941F0CDF91CF911F910F91D4
:1011E00008959C01CB01233F4CE53407F9F078F4D6
:1011F000283DFCE53F07B9F0293D4CE5340711F1E6
:10120000273D3C4531F526E241EE61EE1EC0253F0B
:10121000FCE53F0799F070F0263F3C45D1F427E20A
:1012200045EE66EE12C027E245EE0EC026E241EE24
:1012300060EE0BC027E245EE64EE07C026E241EE09
:1012400062EE03C028E241E065EE0E947D0880E086
:101250000895FC018281882319F010925E0108959F
:1012600081E00895CF93DF93EC01FB018281882315
:1012700009F41FC1C230FCE5DF0708F41BC1C63109
:101280009CE5D90738F09E012A5F3C45293031059D
:1012900008F010C10E948A14909302028093010208
:1012A000C031ECE5DE0709F4C3C008F041C0C83026
:1012B0008CE5D80709F49AC0F0F4C430ECE5DE07F9
:1012C00009F487C068F4C2308CE5D80709F477C008
:1012D000C330DC4509F0E3C080910102826076C032
:1012E000C630ECE5DE0709F46EC008F07BC08091E3
:1012F000010288606BC0CC308CE5D80709F485C04A
:1013000068F4CA30ECE5DE0709F474C008F079C06F
:101310000E94840E80910102806858C0CE308CE516
:10132000D80709F476C008F07FC0809101028BC015
:10133000CB3FECE5DE0709F44FC018F5C3318CE56F
:10134000D80709F47DC078F4C131ECE5DE0709F473
:1013500073C0C231DC4509F0A2C00E94840E8091A6
:1013600001028F7733C0C5318CE5D80709F472C00C
:1013700008F486C0CA3FDC4509F091C080910202A2
:101380003EC0CF3FFCE5DF0709F45FC058F4CD3F16
:101390009CE5D90709F444C008F43FC080910202DB
:1013A00082602DC0C130FDE5DF0709F475C008F487
:1013B0005DC0C230DD4509F072C080E06EC0809132
:1013C0000102816003C0809101028061809301026B
:1013D00066C08091010211C08091020282608093F8
:1013E00002025DC0809101028062F0CF8091010213
:1013F0008064ECCF8091010288608460E7CF8160D7
:10140000EECF809101028E7FE1CF809101028D7F2E
:10141000DDCF80910102877FD9CF8091020218C071
:10142000809102028D7FDBCF809101028F7ECECF33
:10143000809101028F7DCACF809101028F7BC6CF40
:1014400080910102877F8B7FC1CF809102028D7FC7
:101450008E7FC5CF8091010282FB222720F991E087
:10146000922790FB82F990FB83F9B0CF8091020222
:10147000982F909591708E7F892B90FB81F9AFCF3B
:101480000E94840E8091010287FB222720F991E0BF
:10149000922790FB87F99ACF81E00E9419158091DD
:1014A0000102909102020E949B140E94840E80E02F
:1014B00001C081E0DF91CF910895CF93DF93863112
:1014C0009C4541F5EB010E94D313982F8A8120910E
:1014D0001C0130911D01882379F09A7A81E009F48A
:1014E00080E080935F01911102C069E201C065E371
:1014F000C9010E9460150AC080915F01811102C07C
:1015000069E201C065E3C9010E9462150E941414DA
:1015100080E001C081E0DF91CF9108959093650153
:10152000809364010895E0916401F0916501309722
:1015300021F00190F081E02D099480E00895E09180
:101540006401F0916501309721F00280F381E02D74
:101550000994089520916201309163012817390799
:1015600071F09093630180936201E0916401F091C6
:101570006501309721F00680F781E02D09940895E8
:1015800020916001309161012817390771F0909323
:10159000610180936001E0916401F09165013097F1
:1015A00021F00084F185E02D0994089585B78068C5
:1015B00085BF85B7806885BF089508950C94DD0ABE
:1015C0000C94DE0A0C94DD0A0E94D60A0E94B10532
:1015D0000C94E00A81E008950C94EA0A0E94EB154D
:1015E0000E9408040E9446160C94E20AAF92BF9231
:1015F000CF92DF92EF92FF920F931F93CF93DF93DF
:10160000CDB7DEB72A970FB6F894DEBF0FBECDBFB9
:101610000E9427050E94EC0A811111C08FEF898377
:101620008A831B820E94F4158160782F9D838C83AE
:1016300049815A816B818D810E948C0B40C087E665
:10164000A82E81E0B82E00E010E0C02E802F0E946E
:101650008E05E82EF501D1905F01D82631F40F5F99
:101660001F4F0830110589F7D9CF8091E00181FD26
:101670000E94940580E0FF24F3949D2D9F21D1F0DA
:101680008E83CF82EF2081E009F480E088870E947A
:10169000F4158160782F9A8789874E815F816885EC
:1016A0008A850E948C0BF801E959FE4F8081F8264B
:1016B000F08205C08F5FFF0C8730F9F6D0CF0E9413
:1016C000930A909166018917B1F00E94930A809362
:1016D00066012A960FB6F894DEBF0FBECDBFDF912C
:1016E000CF911F910F91FF90EF90DF90CF90BF901F
:1016F000AF900C945F062A960FB6F894DEBF0FBE2B
:10170000CDBFDF91CF911F910F91FF90EF90DF90B0
:10171000CF90BF90AF900895CF93DF93CDB7DEB752
:101720002B970FB6F894DEBF0FBECDBF4F835887FF
:1017300069877A878B87DE01119686E0FD01119219
:101740008A95E9F785E0FE01379601900D928A951A
:10175000E1F749815A816B817C818D819E810E9454
:101760003D112B960FB6F894DEBF0FBECDBFDF91B3
:10177000CF910895FC01808191810E949413089576
:10178000CF93882371F1C82F8CEF8C0F813AD0F45E
:101790006C2F80911C0190911D010E942A158823B5
:1017A00049F06C2F80911C0190911D010E946215DF
:1017B0000E9414146C2F80911C0190911D010E94B5
:1017C00060150CC080E28C0F883058F4C77081E03F
:1017D00001C0880FCA95EAF70E94D613CF910C94E6
:1017E0001414CF910895882349F1682F8CEF860F48
:1017F000813A38F480911C0190911D010E9462157C
:101800000CC080E2860F883050F4677081E001C020
:10181000880F6A95EAF70E94DC130C9414148BE588
:10182000860F833020F480E090E00C94AA0A685A76
:10183000673120F480E090E00C94C00A0895CF93C3
:10184000C82F0E94C00BC93349F42FEF87EE93E0F5
:10185000215080409040E1F700C000008C2FCF91D4
:101860000C94F30B882321F00E94D6130C941414CB
:101870000895882321F00E94DC130C941414089519
:10188000CF92DF92EF92FF920F931F93CF93DF934C
:101890007C01D62FC72FFC01158112951F70028184
:1018A00001110E94F3130E94CC13882399F00023A6
:1018B00089F08C2F807F803421F080E28D0F88307A
:1018C00048F082E00E945E140E94CC1391E0D82E72
:1018D000D92601C0D12CCC2EC2948FE0C8228C2DE9
:1018E00090E08C30910508F08DC1FC01EA5AFF4F61
:1018F0000C94BE1C8C2F807FCF70882311F0C29572
:10190000C07F002399F0CC2309F468C180E28D0FD9
:10191000883010F0D11104C08C2F0E94D61303C060
:101920008C2F0E94E6130E94141458C18D2F0E9420
:10193000F30BCC2309F466C180E28D0F883010F0E0
:10194000D11104C08C2F0E94DC1303C08C2F0E9485
:10195000EC130E94141456C18C2F807FCF708032FC
:1019600011F0C295C07FDD2319F0D130C9F022C03B
:10197000002371F0112341F0113031F40E94F9136A
:101980008C2B0E9401143EC10E94F9138C2B1DC0A8
:10199000112319F0113009F435C10E940A1425C031
:1019A000002321F0163008F02DC10EC0153008F0CC
:1019B00029C11BC0002361F0112331F0F70185819B
:1019C00080FF0CC18F7085838C2F0E94320C1AC14E
:1019D000112359F0D93309F012C1FFEF07EE13E0DC
:1019E000F15000401040E1F708C18C2F0E94390CE3
:1019F00009C18C2F837009F047C0011107C12D2F39
:101A0000229526952770220F220F6D2F6F70862F3B
:101A100090E0A0E0B0E0022E04C0880F991FAA1F3A
:101A2000BB1F0A94D2F7D4FF10C04FE050E060E033
:101A300070E004C0440F551F661F771F2A95D2F728
:101A4000409550956095709503C040E050E0BA0114
:101A5000C695C695C3708A019B01082B192B2A2BAA
:101A60003B2BC901B801C23049F058F4C13019F01C
:101A70000E941112CBC00E94FF11C8C00E94231205
:101A8000C5C00E94FD11C2C0002319F08C2F8170C7
:101A900001C08695882309F4B9C02D2F229526957B
:101AA0002770220F220F6D2F6F70862F90E0A0E01D
:101AB000B0E0022E04C0880F991FAA1FBB1F0A9412
:101AC000D2F7D4FF10C04FE050E060E070E004C0F7
:101AD000440F551F661F771F2A95D2F740955095E2
:101AE0006095709503C040E050E0BA01C695C69578
:101AF000C3708A019B01082B192B2A2B3B2BC90190
:101B0000B801C23049F058F4C13019F00E94D61221
:101B10007DC00E94C4127AC00E94E81277C00E9461
:101B2000371274C0CF70002339F08C2F0E945D12E1
:101B30008D2F0E94320C6AC08D2F0E94390C8C2F81
:101B40000E947E1263C0D23F01F128F4D03F41F0E1
:101B5000D13FA1F03FC0D33FF9F0D43F39F13AC0B3
:101B6000002341F0153008F04DC08C2F8F710E947A
:101B7000A31248C0163008F045C0F7CF002339F053
:101B80008C2F8F710E945D123DC00023C9F38C2FF2
:101B90008F710E947E1236C0002329F08C2F8F7126
:101BA0000E9448122FC00E9443122CC0002349F00B
:101BB000CF718C2F0E945D1263E08C2F0E9449141C
:101BC00021C081E00E945E141230E0F082E00E94A9
:101BD0005E1418C0002331F0112391F28D2F0E9462
:101BE000C00B10C0112399F2D93349F41FEF27EE2F
:101BF00033E0115020403040E1F700C000008D2F4D
:101C00000E94F30B88EF8C0D843020F40E94930A1D
:101C10000E945F06DD20C9F00E94C81380FD15C038
:101C2000F70112820E94C2130E945D12C7010E9436
:101C3000460E0E94C213DF91CF911F910F91FF902A
:101C4000EF90DF90CF900C947E12DF91CF911F9197
:101C50000F91FF90EF90DF90CF9008950F931F9317
:101C6000CF93DF93EC01688179818A810E949F1371
:101C70008C010E94FA120E94EB11B801CE010E9461
:101C8000400CDF91CF911F910F910895CF93DF9377
:101C9000EC01988189812B813C81232B31F08F3F8E
:101CA00031F481E09F3F19F403C081E001C080E07E
:101CB00080FD19C0CE010E94780681110CC00E94DF
:101CC000CC13882381F08A81882369F082E0DF9138
:101CD000CF910C945E14CE010E942E0ECE01DF91A6
:101CE000CF910C944306DF91CF9108950E94F31396
:101CF0000E94F6130C94141480911C0190911D0104
:101D00000E9464150C94760E0E94E3130C947C0ED2
:101D1000E92FE295EF704E2F50E0FA013297EE3046
:101D2000F105B0F4EE59FF4F0C94BE1C803F91F0CA
:101D300018F4883E68F40EC0843F51F40BC0883E0E
:101D400048F0813F29F406C093FB882780F9089565
:101D500080E0089581E008950E9494130E94880E07
:101D60000895CF93DF9300D000D01F92CDB7DEB798
:101D70000F900F900F900F900F90DF91CF910895DB
:101D8000CF93DF9300D000D000D0CDB7DEB726963A
:101D90000FB6F894DEBF0FBECDBFDF91CF9108958F
:101DA0001F93CF93DF93C091700116E08091710172
:101DB000C81799F0D0E01C9FF0011D9FF00D112471
:101DC000EE58FE4F408151816281738184819581FB
:101DD0000E94C00E2196C770E9CFDF91CF911F916D
:101DE00008954091A2015091A3016091A4017091C6
:101DF000A5018091A6019091A7010C94C00E0F93AC
:101E00001F93CF93DF938091A70182958F7009F084
:101E10005DC08091A401882309F458C080917001AD
:101E2000109171016091A2017091A301C091A5016F
:101E3000D091A60191E06F3F09F090E0292F06E0D4
:101E4000811709F443C0209721F07F3F21F030E053
:101E500003C031E001C0322F90E030FD34C0089F54
:101E6000F001099FF00D1124DF01AE58BE4F11960D
:101E70003C911197371327C03C91361324C012961A
:101E80003C91129731111FC013964D915C9114979C
:101E90004C1B5D0B483C5105B0F48091A7018F703D
:101EA00080618093A701E958FE4F80818F70806127
:101EB000808382EA91E00E94460EDF91CF911F91CC
:101EC0000F910C94D00E01968770BACFDF91CF910D
:101ED0001F910F9108959F92AF92BF92CF92DF9280
:101EE000EF92FF920F931F93CF93DF93CDB7DEB79F
:101EF00061970FB6F894DEBF0FBECDBF8C0185E0B1
:101F0000F801DE011D9601900D928A95E1F7F80126
:101F100040815181E2809091A2016091A3012091C2
:101F2000A5013091A6012115310531F06F3F31F443
:101F300081E09F3F19F403C081E001C080E0F82FE9
:101F4000F1709F2E80FD46C1F801A380B48082EA23
:101F5000C82E81E0D82EF090A401F501E21BF30B0E
:101F6000FF2009F4DFC08091A701E83CF10508F0EB
:101F70009BC0282F207F09F052C0561313C049136D
:101F800011C0FE2CE1100EC08F7080618093A701FC
:101F90000E94F10EC6010E94460E8091A701F80131
:101FA000858358C1AB2831F05F3F31F481E04F3F6A
:101FB00019F403C081E001C080E080FD03C081E02E
:101FC0008E2502C080E090E0F82FF170FF2E80FF98
:101FD0001CC0809170012091710136E0821709F4D4
:101FE00017C190E0389FF001399FF00D1124EE5891
:101FF000FE4F6181561306C06081461303C06281A3
:10200000E61203C001968770E9CFFE2CEE2009F49A
:1020100021C18091A70181608093A7015AC0561306
:1020200006C0491304C0E11002C0F8019FC04D87EB
:102030005E878D859E850E94AC0E882379F1EE2007
:1020400069F12091A701822F82958F7090E002970D
:1020500074F08091A2019091A30198878F831986D3
:10206000BB86AA862C87CE0107960E94460E86E084
:10207000F801A2EAB1E001900D928A95E1F70E9481
:10208000FF0E0E94F10E0DC0561729F14D875E8795
:102090008D859E850E94AC0E81112CC0C8010E94C6
:1020A000460EFF24F394D6C0282F207F69F77A2D9F
:1020B000B98AA88A6E2D89890E94B10E82EA91E0C0
:1020C0000E94460E86E0F60111928A95E9F70E9479
:1020D000F10EF12CBFC04913D9CFE110D7CFF801D1
:1020E0008583C8010E94460E86E0F60111928A950A
:1020F000E9F7B0C0EE2091F22091A701822F8295DE
:102100008F7090E002970CF4B2CF8091A201909171
:10211000A3019A8389831B82BD82AC822E83CE0168
:102120000196A3CFE83CF10508F047C0FE2CEE2055
:1021300009F4B4CF561330C049132EC02091A70123
:1021400020FD21C0822F82958F70482F50E04115CD
:102150005105C9F0F80125834F30510541F08F5FDB
:10216000982F9295907F822F8F70892B8583C8013D
:102170000E94460E86E0F801A2EAB1E001900D92BD
:102180008A95E1F742C086E0F801A2EAB1E0019049
:102190000D928A95E1F75EC04D875E878D859E859D
:1021A0000E94AC0E811163CF8091A7018160809362
:1021B000A701C8010E94460E4DC07A2DB98AA88A8F
:1021C0006E2D89890E94B10E86E0F60111928A95E2
:1021D000E9F71BC0EE2009F461CF4D875E878D853E
:1021E0009E850E94AC0EF82E882309F457CF86E016
:1021F000F801A2EAB1E001900D928A95E1F782EA36
:1022000091E00E94BA0B0E94FF0E0E94F10E22C0C4
:102210004D875E878D859E850E949413292F229578
:102220002F70223028F49F7039F0811105C00BC047
:10223000243028F49F7049F4805E883020F0C80173
:102240000E94460E9F2CF92C05C0F8019581907FC5
:1022500099F7F9CF8F2D61960FB6F894DEBF0FBEB8
:10226000CDBFDF91CF911F910F91FF90EF90DF9045
:10227000CF90BF90AF909F9008951F93CF93DF931F
:10228000CDB7DEB72C970FB6F894DEBF0FBECDBF2B
:102290004F83588769877A878B879C87CE010796FB
:1022A0000E946B0F8823D1F09F8188852A853B850A
:1022B000232B31F08F3F31F481E09F3F19F403C0AD
:1022C00081E001C080E080FD47C04F81588569856D
:1022D0007A858B859C850E94C00E3EC086E0FE01FB
:1022E0003796DE01119601900D928A95E1F7FF81F4
:1022F000E8856A857B856115710531F0EF3F31F422
:1023000081E0FF3F19F403C081E001C080E080FD5F
:1023100023C02091710130E0C9010196877099278F
:102320004091700150E084179507F1F1F983EA8339
:102330007D836C8396E0929FD001939FB00D112412
:10234000AE58BE4FFE01319601900D929A95E1F77D
:10235000809371010E94D00E16E0809170019091DF
:102360007101891771F1189FC00111248E589E4F79
:102370000E946B0F882329F1E09170011E9FF001EC
:102380001124EE58FE4F4081518162817381848116
:1023900095810E94C00E8091700190E00196877037
:1023A000992780937001D9CF0E94840E10927101F9
:1023B00010927001E2EAF1E086E0DF011D928A9559
:1023C000E9F72C960FB6F894DEBF0FBECDBFDF91B4
:1023D000CF911F910895089508950C94EC110C94D9
:1023E000ED110E94EF116093CF017093D0018093A3
:1023F000D1019093D2010C94760E0C94F1110F93AD
:102400001F930091CF011091D0012091D101309103
:10241000D201602B712B822B932B1F910F910C9467
:10242000F1110F931F930091CF011091D0012091D2
:10243000D1013091D20160237123822393231F9114
:102440000F910C94F1110F931F930091CF011091F4
:10245000D0012091D1013091D201602771278227CC
:1024600093271F910F910C94F1110C94EC110E9481
:1024700035126093CB017093CC018093CD01909382
:10248000CE010C94760E60E070E0CB010C94371214
:102490000F931F9341E050E060E070E08A019B01E0
:1024A00004C0000F111F221F331F8A95D2F7C901E4
:1024B000B8011F910F910C9437120F931F9341E0B5
:1024C00050E060E070E004C0440F551F661F771FA6
:1024D0008A95D2F78091CB019091CC01A091CD014A
:1024E000B091CE018A019B01082B192B2A2B3B2B83
:1024F000C901B8011F910F910C9437120F931F93CC
:1025000041E050E060E070E004C0440F551F661FDA
:10251000771F8A95D2F74095509560957095809178
:10252000CB019091CC01A091CD01B091CE018A0157
:102530009B01082319232A233B23C901B8011F91BA
:102540000F910C9437120F931F9341E050E060E01D
:1025500070E004C0440F551F661F771F8A95D2F79D
:102560008091CB019091CC01A091CD01B091CE0191
:102570008A019B01082719272A273B27C901B8018F
:102580001F910F910C9437120F931F930091CB0161
:102590001091CC012091CD013091CE01602B712B97
:1025A000822B932B1F910F910C9437120F931F9333
:1025B0000091CB011091CC012091CD013091CE0141
:1025C00060237123822393231F910F910C94371260
:1025D0000F931F930091CB011091CC012091CD015D
:1025E0003091CE0160277127822793271F910F9189
:1025F0000C943712089527E0929F800D1124E82F44
:10260000E695E695E695877051E001C0550F8A95ED
:10261000EAF785E0E89FF0011124E855FE4F20E03D
:1026200030E070E04081CB01022E02C09695879584
:102630000A94E2F78170819584278523842781930A
:102640002F5F3F4F2530310569F7089527E0929FAE
:10265000800D1124682F669566956695982F977062
:1026600085E0689FB001112440E050E080E0FB016C
:10267000E40FF51FE855FE4F208130E0092E02C01F
:10268000369527950A94E2F721703327042E01C06E
:10269000220F0A94EAF7822B4F5F5F4F45305105B6
:1026A00031F70895BF92CF92DF92EF92FF920F938E
:1026B0001F93CF93DF938C01C090CB01D090CC01BE
:1026C000E090CD01F090CE018091CF019091D001AA
:1026D000A091D101B091D201C82AD92AEA2AFB2AB5
:1026E000CFE1D0E0D701C6010C2E04C0B695A79566
:1026F000979587950A94D2F780FD04C0219790F7AB
:10270000B12C07C0BC2EB8018C2F0E94C8060197BF
:10271000A9F38B2DDF91CF911F910F91FF90EF9037
:10272000DF90CF90BF900895CF93DF93EC010E948C
:102730005213BE010E94C806DF91CF9108951F93E6
:10274000CF93DF93EB0190916F01992321F0CB019F
:102750000E94941313C0882349F0CB010E945213A6
:10276000182F682FCE010E94FB1204C0CB010E94DB
:102770002613182FBE01812F0E94C806DF91CF912A
:102780001F9108958091D30185958595859508952C
:102790008091D301877008959091D301977081E063
:1027A00009F480E008958091DF0108959091DF01A0
:1027B000892B8093DF01089580959091DF01892313
:1027C0008093DF0108951092DF0108959091DE015A
:1027D000892B8093DE01089580959091DE018923F5
:1027E0008093DE0108951092DE0108951092DD01BC
:1027F00008958091D401089508950C94FC130C94CD
:10280000FD139091D401981721F08093D4010C947A
:10281000FF1308958091D401882329F01092D401E8
:1028200080E00C94FF130895E0911C01F0911D01CC
:102830008091DF018083E0911C01F0911D01908166
:102840008091DE01892B8083E0911C01F0911D01B4
:1028500090818091DD01892B80838091D401882330
:1028600081F0E0911C01F0911D019081892B808302
:1028700080911C0190911D010E941E1581110E94E2
:102880000A1480911C0190911D010C949F0A0C94D4
:10289000FC1398E0899F90011124262B2093D301EB
:1028A0000E945D128091D3018595859585950C9444
:1028B00047141092D30180E00C9447142091D30167
:1028C000809582238093D301982F977079F430E01C
:1028D000482F082E000C550B2417350739F0859525
:1028E000859585950E947E120C945914089580E078
:1028F00090E00E94D91C21E08C3E9E4F09F020E020
:10290000822F089582E090E00C94D11C83E090E047
:102910000C94D11CCF9384E090E00E94D11CC82F6E
:1029200081E290E00E94D11C2C2F30E0A901582BAD
:10293000CA01CF910895CF93C92F682F84E090E00A
:102940000E94DF1C6C2F81E290E0CF910C94DF1C81
:10295000AB01BC018FE090E00C94F11CAB01BC0119
:1029600083E190E00C94F11C60E070E0CB010C94EA
:10297000AE1460E070E0CB010E94A8140C94B41473
:102980006CEE7EEF80E090E00E94FD1C60E082E053
:1029900090E00E94DF1C60E083E090E00E94DF1C7A
:1029A0001092CF011092D0011092D1011092D20159
:1029B00060E084E090E00E94DF1C60E081E290E053
:1029C0000E94DF1C60E085E090E00E94DF1C60E078
:1029D00086E090E00E94DF1C6FEF87E090E00E94AD
:1029E000DF1C40E050E0BA0188E090E00E94F11C5A
:1029F00060E08DE090E00E94DF1C40E050E0BA0112
:102A000088E190E00E94F11C60E087E190E00E9484
:102A1000DF1C40E050E0BA018CE190E00E94F11C24
:102A200060E080E290E00E94DF1C0C94B9140C94EA
:102A3000C014682F8EE090E00C94DF1CFC013296ED
:102A400097E080E0915029F021912223D9F38F5F04
:102A5000F9CF0895662349F0FC013296089621913A
:102A6000621729F0E817F907D1F780E0089581E0AF
:102A700008959C01FC0132969FEF80E0419146173A
:102A800089F09F3F19F4411101C0982F8F5F863064
:102A9000A9F79F3F39F0F901E90FF11D97FDFA956C
:102AA0006283089508959C012A5F3F4FFC01428193
:102AB000461301C01282019682179307B9F7089551
:102AC0000C9439150C945315029626E0FC011192D2
:102AD0002A95E9F7089508950C946B150C946B15DD
:102AE000CF930E946E150E9427050E946C15C0E0CE
:102AF0008C2F0E948E05811104C0CF5FC830C1F7B2
:102B000001C081E0CF9108950C946B150C9484154D
:102B10000E94861580910702843049F11092E101EC
:102B200020E488E190E00FB6F894A89580936000C7
:102B30000FBE2093600080E00E945F060E94861511
:102B400083B7817F846083BF83B7816083BF7894BC
:102B5000889583B78E7F83BF0FB6F894A895809130
:102B60006000886180936000109260000FBE08953D
:102B70000C946B150E94840E0E94930A0E945F06BB
:102B80000C94B8151F920F920FB60F9211248F93C9
:102B90009F93AF93BF938091E101811113C0809106
:102BA000FD019091FE01A091FF01B09100024196BC
:102BB000A11DB11D8093FD019093FE01A093FF0123
:102BC000B0930002BF91AF919F918F910F900FBE74
:102BD0000F901F90189582E084BD93E095BD9AEF09
:102BE00097BD80936E0008952FB7F8948091FD01F2
:102BF0009091FE01A091FF01B09100022FBF0895B6
:102C00009C014FB7F8948091FD019091FE01A09135
:102C1000FF01B09100024FBF821B930B089578947F
:102C20001F920F920FB60F9211248F939F93AF9321
:102C3000BF938091FD019091FE01A091FF01B091A1
:102C400000020196A11DB11D8093FD019093FE012C
:102C5000A093FF01B0930002BF91AF919F918F911C
:102C60000F900FBE0F901F90189587E797E79093EE
:102C70000108809300089AE088E10FB6F894A895BF
:102C8000809360000FBE90936000FFCF0E94771486
:102C9000811102C00E9417150E9482148093E001E6
:102CA0000E948A1490930202809301020E9486146B
:102CB000682F70E080E090E00C94FD118091EA01B3
:102CC000089508950895CF93DF93EC010E940318AF
:102CD000823011F0843039F581E08093E9008FEF84
:102CE0009091E800815095FD06C095ED9A95F1F719
:102CF00000008111F5CF8091E80085FF14C040E00D
:102D000050E068E070E0CE010E9420188091E80059
:102D10008E778093E80088E0FE01A2EEB1E001909A
:102D20000D928A95E1F7DF91CF91089508958091F2
:102D30000602811109C00E94B1190E940E1A8091E9
:102D4000E20084608093E2000895109206020895E4
:102D5000089508950C94BA1542E061EC81E00C945A
:102D60002A1980910902833009F460C030F481305F
:102D700071F0823009F499C008958A3009F485C051
:102D80008B3009F46BC0893009F0A7C020C0809156
:102D90000802813A09F0A1C08091E800877F809302
:102DA000E80080910C0290910D02892B21F468E0DB
:102DB00082EE91E003C060E080E090E070E00E946D
:102DC0006B188091E8008B778093E80008958091DC
:102DD0000802813209F081C080910C0290910D02AD
:102DE000892B09F07AC08091E800877F8093E80002
:102DF0008091E80082FD05C0809107028111F8CF23
:102E00006CC02091F3008091F20090E0922B029729
:102E100029F48091F1008B7F813021F48091F100C1
:102E20008093EA018091E8008B7753C0809108027B
:102E3000813A09F052C080910C0290910D02892BC9
:102E400009F04BC08091E800877F8093E800809173
:102E5000E80080FFFCCF8091280136C080910802F5
:102E60008132D9F580910C0290910D02892BA9F540
:102E70008091E800877F8093E8000E945F1980912D
:102E80000A02809328010C94840E809108028132FA
:102E900021F58091E800877F8093E8000E945F1908
:102EA00080910B028093EB01089580910802813A92
:102EB000A1F48091E800877F8093E8008091E8008A
:102EC00080FFFCCF8091EB018093F1008091E800BE
:102ED0008E778093E8000C945F19089584B7877FFC
:102EE00084BF0FB6F894A8958091600088618093A4
:102EF0006000109260000FBE90E080E80FB6F8947A
:102F000080936100909361000FBE0E94E40A0E94CA
:102F1000B1190E940E1A8091E20084608093E20051
:102F200078940E94A31C0E94EE0A8EE191E00E9418
:102F30008E0A80910702853069F40E94881580917D
:102F400005028823B1F30E947015882391F30E9433
:102F50000A18EFCF0E94F60AECCF0C94AF17292F76
:102F6000332723303105C1F058F42130310579F091
:102F700022303105C1F582E290E02CE632E037C024
:102F80002132310511F12232310531F12CC082E1BB
:102F900090E02EE832E02BC099278130910561F056
:102FA00040F08230910559F00397E9F4E4E4F2E04F
:102FB00008C0E8E6F2E005C0EAE5F2E002C0EAE4B3
:102FC000F2E0849190E09F0112C0672B61F489E0E8
:102FD00090E02EE732E00BC0672B29F480E490E00C
:102FE00020EA32E004C080E090E020E030E0FA0126
:102FF00031832083089580910702843011F081E0AD
:10300000089582E008958091EC01811102C00C9432
:10301000FB17089580E189BD82E189BD09B400FEF6
:10302000FDCF8091D8008F7D8093D8008091E00003
:1030300082608093E0008091E00081FDFCCF0895E4
:10304000CF92DF92EF92FF920F931F93CF93DF9374
:10305000EC018B017A010E947E19811133C0E114C9
:10306000F10439F0F70180819181081B190BC80F19
:10307000D91FC12CD12C0115110519F18091E8003F
:1030800085FD16C08091E8008E778093E800E114FA
:10309000F10449F0F70180819181C80ED91ED182D7
:1030A000C08285E00FC00E947E19882321F30AC0E8
:1030B00089918093F10001501109FFEFCF1ADF0AC7
:1030C000DACF80E0DF91CF911F910F91FF90EF90C9
:1030D000DF90CF90089520910E0230910F022617B5
:1030E000370748F06115710539F42091E8002E7713
:1030F0002093E80001C0B901FC0120E061157105D1
:1031000079F1809107028823F1F18530F1F1809106
:10311000E80083FD3CC08091E80082FD2EC08091D4
:10312000E80080FFEBCF2091F3008091F20090E067
:10313000922B6115710551F08830910538F4219179
:103140002093F100615071090196F3CF21E00897B7
:1031500009F020E08091E8008E778093E800CECFE0
:103160002111CFCF0AC080910702882361F08530FA
:1031700061F08091E80083FD0AC08091E80082FF41
:10318000F2CF80E0089582E0089583E0089581E021
:10319000089520910E0230910F022617370748F04C
:1031A0006115710539F42091E8002E772093E8002D
:1031B00001C0B901FC0120E06115710591F1809118
:1031C0000702882309F440C0853009F43FC080918C
:1031D000E80083FD3DC08091E80082FD2FC0809112
:1031E000E80080FFE9CF2091F3008091F20090E0A9
:1031F000922B6115710559F08830910540F42491A6
:103200002093F1003196615071090196F2CF21E0CF
:10321000089709F020E08091E8008E778093E8001D
:10322000CBCF2111CCCF0AC080910702882361F057
:10323000853061F08091E80083FD0AC08091E8004C
:1032400082FFF2CF80E0089582E0089583E0089540
:1032500081E00895982F973068F59093E9009817CA
:1032600039F07091EC002091ED005091F00003C016
:10327000242F762F50E021FD02C09F5FECCF3091CC
:10328000EB003E7F3093EB003091ED003D7F3093BB
:10329000ED003091EB0031603093EB007093EC0067
:1032A0002093ED005093F0002091EE0027FDE5CF34
:1032B00080E008958F708093E90081E00895809107
:1032C000080287FF11C08091E80082FD05C080914F
:1032D00007028111F8CF11C08091E8008B770BC0F5
:1032E00080910702882349F08091E80080FFF8CFA1
:1032F0008091E8008E778093E80008952091E400A3
:103300003091E50095E64091EC00842F817040FFFC
:1033100023C08091E80080FD1DC0809107028823B2
:1033200099F0853099F08091EB0085FD11C04091B6
:10333000E4005091E5002417350729F3915011F06E
:103340009A01E1CF84E0089582E0089583E0089532
:1033500081E0089580E008954091E80042FFDDCFCC
:1033600008950E941F1A0E94271AE0EEF0E0808163
:1033700081608083E8EDF0E080818F77808319BCE5
:10338000A7EDB0E08C918E7F8C9380818F7E8083BF
:103390001092060208950F931F93CF93DF930E941C
:1033A0001F1A0E94271AC8EDD0E088818F77888382
:1033B00088818068888388818F7D888319BC10927A
:1033C000070210920302109205021092040200EE0E
:1033D00010E0F80180818B7F808388818160888301
:1033E00042E060E080E00E942A19E1EEF0E0808196
:1033F0008E7F8083E2EEF0E0808181608083808137
:1034000088608083F80180818E7F808388818061DD
:103410008883DF91CF911F910F910895E8EDF0E03F
:1034200080818F7E8083E7EDF0E080818160808302
:1034300084E082BF81E0809306020C94CB19E8ED12
:10344000F0E080818E7F80831092E20008951092D8
:10345000DA001092E10008951F920F920FB60F92BA
:1034600011242F933F934F935F936F937F938F9389
:103470009F93AF93BF93EF93FF938091E10082FFFF
:103480000BC08091E20082FF07C08091E1008B7F3A
:103490008093E1000E94A21C8091DA0080FF1FC08F
:1034A0008091D80080FF1BC08091DA008E7F8093CE
:1034B000DA008091D90080FF0DC080E189BD82E1F2
:1034C00089BD09B400FEFDCF81E0809307020E9410
:1034D000971605C019BC109207020E94A51680918C
:1034E000E10080FF19C08091E20080FF15C080914B
:1034F000E2008E7F8093E2008091E2008061809301
:10350000E2008091D80080628093D80019BC85E0E9
:10351000809307020E94A9168091E10084FF30C0C9
:103520008091E20084FF2CC080E189BD82E189BDE9
:1035300009B400FEFDCF8091D8008F7D8093D80024
:103540008091E1008F7E8093E1008091E2008F7E88
:103550008093E2008091E20081608093E20080919C
:103560000302882311F084E007C08091E30087FD07
:1035700002C081E001C083E0809307020E94AA1686
:103580008091E10083FF29C08091E20083FF25C084
:103590008091E100877F8093E10082E080930702C1
:1035A000109203028091E1008E7F8093E100809170
:1035B000E2008E7F8093E2008091E2008061809340
:1035C000E20042E060E080E00E942A198091F00071
:1035D00088608093F0000E94A816FF91EF91BF9140
:1035E000AF919F918F917F916F915F914F913F919B
:1035F0002F910F900FBE0F901F9018951F920F9252
:103600000FB60F9211242F933F934F935F936F93B5
:103610007F938F939F93AF93BF93CF93DF93EF935A
:10362000FF93C091E900CF708091EC00D82FD1704A
:1036300080FDD0E81092E9008091F000877F8093B0
:10364000F00078940E94421B1092E9008091F000F3
:1036500088608093F000CD2BCF70C093E900FF917C
:10366000EF91DF91CF91BF91AF919F918F917F911A
:103670006F915F914F913F912F910F900FBE0F90DF
:103680001F9018951F93CF93DF93CDB7DEB7AA97FE
:103690000FB6F894DEBF0FBECDBFE8E0F2E0809138
:1036A000F100819322E0E031F207C9F70E94B116E0
:1036B0008091E80083FF2EC1809108029091090259
:1036C000492F50E04A30510508F024C1FA01E05971
:1036D000FF4F0C94BE1C803821F0823809F01AC1CB
:1036E00008C08091040290910502992389F08260BC
:1036F0000FC080910C028F70873008F00BC180934F
:10370000E9008091EB0085FB882780F91092E900A1
:103710009091E800977F9093E8008093F1001092D9
:10372000F100D1C0282F2D7F09F0F4C0882319F0B3
:10373000823061F0EFC080910A02813009F0EAC066
:10374000933009F080E0809305022EC080910A0238
:1037500081112AC080910C028F702FEF280F263024
:1037600008F0D8C08093E9002091EB0020FF1CC036
:10377000933021F48091EB00806214C09091EB00B3
:1037800090619093EB0021E030E0A90102C0440F6A
:10379000551F8A95E2F74093EA001092EA00809163
:1037A000EB0088608093EB001092E9008091E800C4
:1037B000877F8093E8000E945F19ACC08111AAC086
:1037C00010910A021F778091E3008078812B80930B
:1037D000E3008091E800877F8093E8000E945F19F2
:1037E0008091E80080FFFCCF8091E30080688093A7
:1037F000E300111102C082E001C083E08093070260
:1038000089C08058823008F085C080910A0290916A
:103810000B028C3D53E0950779F583E08A838AE2B9
:1038200089834FB7F894DE01139620E03EE051E221
:10383000E32FF0E050935700E49120FF03C0E2959E
:10384000EF703F5FEF708E2F90E0EA3010F0C79678
:1038500001C0C0968D939D932F5F243149F74FBFD0
:103860008091E800877F8093E8006AE270E0CE01F3
:1038700001960E946B1816C060910C0270910D02A7
:10388000AE014F5F5F4F0E94AD17BC01892B09F459
:1038900041C09091E800977F9093E80089819A81D8
:1038A0000E94C9188091E8008B778093E80032C0AD
:1038B000803881F58091E800877F8093E8008091CF
:1038C00003028093F1008091E8008E7772CF81111E
:1038D00021C080910A0290910B0299270297D4F49B
:1038E0008091E800877F8093E80080910A028093AE
:1038F00003020E945F1980910302811106C080912A
:10390000E30087FD02C081E001C084E080930702EC
:103910000E94AC168091E80083FF0AC08091E80005
:10392000877F8093E8008091EB0080628093EB00BA
:10393000AA960FB6F894DEBF0FBECDBFDF91CF9130
:103940001F9108950895CF93809107028823A1F0D5
:10395000C091E900CF709091EC00892F817090FDAB
:1039600080E8C82B1092E9008091E80083FD0E9456
:10397000421BCF70C093E900CF910895EE0FFF1F57
:103980000590F491E02D0994FB01DC0104C08D91B8
:103990000190801921F441505040C8F7881B990BC1
:1039A0000895F999FECF92BD81BDF89A992780B507
:1039B0000895A8E1B0E042E050E00C94051D262FE8
:1039C000F999FECF92BD81BDF89A019700B4021615
:1039D00039F01FBA20BD0FB6F894FA9AF99A0FBEC3
:1039E00008950396272F0E94E01C0E94DF1C252FBC
:1039F0000E94E01C242F0C94E01C0196272F0E94AB
:103A0000E01C0C94DF1CDC01CB01FC01F999FECF1A
:103A100006C0F2BDE1BDF89A319600B40D92415056
:0A3A20005040B8F70895F894FFCF66
:103A2A000501530100000001510153010454010131
:103A3A0051015201000000045801FFFFD5015E1632
:103A4A00631661169616621601F4F5F6F7313332EB
:083A5A00946697C6000000000D
:00000001FF
