:100000000C94A8010C94EF010C94EF010C940303E1
:100010000C94EF010C94EF010C94EF010C94EF01A0
:100020000C94EF010C94EF010C94641A0C94361BA1
:100030000C94FA150C94EF010C94EF010C94EF0161
:100040000C94EF010C94EF010C94EF010C94EF0170
:100050000C94EF010C9447160C94EF010C94EF01F3
:100060000C94EF010C94EF010C94EF010C94EF0150
:100070000C94EF010C94EF010C94EF010C94EF0140
:100080000C94EF010C94EF010C94EF010C94EF0130
:100090000C94F1010C94EF010C94EF010C94EF011E
:1000A0000C94EF010C94EF010C94EF01B20CB20C24
:1000B000E40CE40C3A0E3A0E3A0E3A0E310DCA0D2B
:1000C000DB0DDB0DCE0ECE0EE00EE00ED70EE00EF9
:1000D000E00EE00ECE0ECE0EDC0EE00EE00EDC0EDC
:1000E000A31BCA1BC21CCA1BC21C161C391CC21C67
:1000F000901C9F1CE30014001A0008001500170054
:100100000000E10004001600070009000A000000DA
:10011000E0001D001B0006001900050000000000A3
:10012000000035042B00E200025100002A001300F9
:1001300012000C0018001C000000340033000F00F7
:100140000E000D000B0000002800380037003600BC
:1001500010001100000000000000E500E4002C0089
:1001600001510000290088003A003B003C003D009E
:100170000000010091003E003F00400041000000EF
:100180000100000042004300440045000000000060
:100190000000010001000100E20000004C004600E8
:1001A00020001F001E00270000002C00A9002300D3
:1001B0002200210000000000A800AA00260025005F
:1001C0002400000000000000000001000100010008
:1001D0000000000035001E021F0220022102220240
:1001E000000001005001500052004F004F0100007C
:1001F00001004A00500451004F044D00000000006F
:1002000000000100010001000000000001002702C1
:10021000260225022402230200002C002E022D00BB
:1002200030022F020000000001002E002D023000DD
:100230002F0000000000000000000100010001008C
:10024000E6000000E20201000100010001000100DF
:100250000000E002010001000100010001000000B7
:10026000E2010100010001000100010000000000A6
:100270000000010001000100000000000100010079
:100280000100010001000100000001000100010067
:100290000100010001000000010001000100010057
:1002A0000100010000000000000001000100010049
:1002B000000000000403300000000E0363006C0027
:1002C000610077003400340000000C037900660000
:1002D00075006B0075000000040309040902220088
:1002E000010100A0FA090400000103010100092135
:1002F000110100012240000705810308000A1201D4
:10030000100100000008EDFE603001000102030151
:1003100005010906A101050719E029E715002501D6
:10032000950875018102950175088101050719007D
:1003300029FF150026FF009506750881000508199C
:10034000012905950575019102950175039101C07B
:1003500011241FBECFEFDAE0DEBFCDBF04B603FE2F
:1003600027C08091100290911102A0911202B091C9
:1003700013028730904BA740B04BD1F4109210027B
:1003800010921102109212021092130214BE84B73E
:10039000877F84BF0FB6F894A8958091600088612C
:1003A00080936000109260000FBEE0E0F8E30995D2
:1003B00011E0A0E0B1E0EAE9FAE302C005900D9295
:1003C000A833B107D9F722E0A8E3B1E001C01D923C
:1003D000A031B207E1F70E94A6170C944B1D0C94B4
:1003E00000001F920F920FB60F9211248F939F93CC
:1003F000EF93FF938091B900887F803869F038F4DB
:100400008823C9F18036C9F51092380136C0883A80
:1004100009F1883BF9F031C080913801811111C098
:100420008091BB008093390180913901803120F0A7
:100430001092390180E001C081E091E09093380191
:100440001DC0E0913901F0E08091BB00E351FE4F07
:10045000808308C0E0913901F0E0E351FE4F8081D4
:100460008093BB008091390190E001968F709927AD
:100470008093390102C01092BC0081E09091BC00D1
:100480008295880F880F807C9568892B8093BC00AB
:10049000FF91EF919F918F910F900FBE0F901F9042
:1004A00018958EE14A9B02C08150E1F74A9BFECF2E
:1004B00008955A9880E28A95F1F75A9A0895FC01B6
:1004C0002AE02A95F1F790E020E080E031E026175D
:1004D00079F040E14A95F1F7880F4A9B02C08160AC
:1004E000932700C0000040E14A95F1F72F5FEFCF5E
:1004F00020E12A95F1F729B100C0000030E13A95DA
:10050000F1F722FB222720F992272081920F908376
:100510000895EF92FF920F931F93CF93DF931F9253
:10052000CDB7DEB719828C017C01E60EF11C0E15E9
:100530001F0559F00E94510268E0CE0101960E9409
:100540005F02F80181938F01F2CF81E099819111CF
:1005500080E00F90DF91CF911F910F91FF90EF906E
:10056000089590933C0180933B0160933A01529A25
:100570005A9A089590933C0180933B0160933A010D
:1005800052985A9AEA9AE9E6F0E080818F7C80835B
:100590000895615091E001C0990F6A95EAF720E053
:1005A00031E0992361F0492F482319F05A9A232703
:1005B00001C05A9840E24A95F1F79695F2CF22236E
:1005C00011F05A9A01C05A9880E28A95F1F75A9828
:1005D0000895FF920F931F93CF93DF93EC018C014B
:1005E000060F111DC017D10741F0F9900E94590262
:1005F00068E08F2D0E94C902F5CFDF91CF911F9146
:100600000F91FF9008951F920F920FB60F92112431
:100610000F931F932F933F934F935F936F937F930A
:100620008F939F93AF93BF93EF93FF93CF93DF93FA
:100630001F92CDB7DEB719820E94510267E0CE014A
:1006400001960E945F02382F369536953695932F86
:1006500096959570232F2570920F292F23709695CC
:1006600096958770920F891348C08981811145C082
:1006700080913A01831708F440C080E18A95F1F730
:100680005A9A529AA2E0AA95F1F700C000913B0154
:1006900010913C01B8E03B9F000D111D11245A98A8
:1006A000F8016581662321F0868197810E94E90225
:1006B0000E945902F0E1FA95F1F75A9852985A9A25
:1006C00080E18A95F1F7D80112966C911297662312
:1006D00069F013968D919C9114970E948902D8011C
:1006E000ED91FC91811105C082E004C0D801ED912B
:1006F000FC9188E080830E9451020F90DF91CF919E
:10070000FF91EF91BF91AF919F918F917F916F91E9
:100710005F914F913F912F911F910F910F900FBEBD
:100720000F901F9018950F931F93CF93DF932091F5
:100730003A0130E0281739070CF471C09C0193E0AE
:10074000220F331F9A95E1F7C0913B01D0913C01F4
:10075000C20FD31FF894529A5A9845E04A95F1F780
:100760000000982F969595708570890F982F93703B
:1007700086958695890F8901082B0E94590284E08D
:100780008A95F1F700C067E0802F0E94C90240E11E
:100790004A95F1F752985A9A4A9902C000C0FCCF84
:1007A00087E090E04A9B0EC0019751F4529A5A9A02
:1007B000E881F98181E08083789481E090E031C024
:1007C00000C0F0CF6D81662381F08E819F810E94F1
:1007D000890281110AC0529A5A9AE881F98182E00D
:1007E0008083789482E090E01CC00E94510280E2F5
:1007F0008A95F1F75A98529A40E14A95F1F76A8141
:10080000662321F08B819C810E94E9020E9459029B
:10081000E881F9811082789480E090E002C084E061
:1008200090E0DF91CF911F910F910895CF93DF93C7
:10083000A0E3B1E044E351E061E070E08D91E82F86
:10084000E295EF70F0E021A18F70EB0102C0CC0FB8
:10085000DD1F8A95E2F7CE019C2F9095922391A3FC
:1008600092A1892B82A34A175B0741F7DF91CF91B1
:10087000089508950C9439040C943A040C943904A6
:100880008091E001836088608093E0010E941604FB
:10089000A9E2B1E041E050E08D91E82FE295EF70E0
:1008A000F0E021A18F70BA0102C0660F771F8A9510
:1008B000E2F7CB01962F9095922391A392A1892BD9
:1008C00082A371E0A033B70739F7209A559A289A86
:1008D0005D9AE5E4F1E0ADE3B1E011921D9281E0B3
:1008E000ED34F807D1F70E94CD0580934D010C94AB
:1008F00086069F92AF92BF92CF92DF92EF92FF92C5
:100900000F931F93CF93DF9380910101811103C057
:10091000C4E0D0E002C0C0E0D0E0AE01435C5E4F76
:100920007A0180E3C82E81E0D82E8A01AA24A394FC
:10093000B12C25E0922EF4E3CF16F1E0DF0609F4A6
:100940004AC0F60181916F01E82FE295EF70F0E067
:1009500021A18F70A50102C0440F551F8A95E2F7AF
:10096000CA01922F982B91A392A18095892382A3EB
:1009700050EA5A95F1F7E9E2F1E020E040E050E07A
:100980003191A32FA295AF70B0E090968C9190E03A
:100990003F7002C0959587953A95E2F780FD07C0B4
:1009A000C501042E01C0880F0A94EAF702C080E056
:1009B00090E0282B4F5F5F4F4730510509F7F80152
:1009C0008081821719F02083909200010E94160402
:1009D0000F5F1F4FB0CF809100018823B1F081508D
:1009E00080930001811103C0CB5BDE4F07C08FE90C
:1009F0009FE00197F1F700C0000007C0F701919157
:100A00007F0199938F5F8430C9F781E0DF91CF91A7
:100A10001F910F91FF90EF90DF90CF90BF90AF901C
:100A20009F900895CF93DF9320910101211103C07E
:100A3000C0E0D0E002C0C4E0D0E00E94F70500971B
:100A400021F00297A1F4289812C0289ACB5BDE4FC0
:100A50008091580190915901A0915A01B0915B0188
:100A600088839983AA83BB8380E090E002C081E001
:100A700090E0DF91CF9108950E9479048091010167
:100A8000811103C0E4E0F0E002C0E0E0F0E0EB5BE5
:100A9000FE4F20E030E080E0D901A85ABE4F4C91D3
:100AA0009191491381E09C932F5F3F4F2430310592
:100AB00099F790915101890F809351010895CF9337
:100AC000DF9380914D01882309F440C00E9479048E
:100AD00080910101811103C0C4E0D0E002C0C0E0F8
:100AE000D0E0CB5BDE4F44E050E0BE0184E591E016
:100AF0000E94FC1C488159816A817B81409354018A
:100B00005093550160935601709357010E9412054E
:100B1000892BC1F05D9880914E018F5F80934E01CB
:100B2000863070F180910101811103C0E0E0F0E0B6
:100B300002C0E4E0F0E0EB5BFE4F10821182128213
:100B400013821EC05D9A10924E011AC00E943C058D
:100B500080910101811103C080E090E002C084E037
:100B600090E0FC01EB5BFE4F409154015091550128
:100B70006091560170915701408351836283738362
:100B80000E948E0681E0DF91CF910895E82FF0E07A
:100B9000EB5BFE4F808108950895E8EDF0E08081E1
:100BA000806180838AE18A95F1F700C08091D90045
:100BB000817008950E94CD05809301010E94CD05AA
:100BC000882319F00E94EB0502C00E94F105789479
:100BD00008950C94DA0563E070E082E091E00C94F3
:100BE000B10263E070E082E091E00C94BA020F93EE
:100BF0001F93CF93DF938C0190911B0180911A0179
:100C0000981761F082E090E00E949303EC01892B39
:100C100039F480911A0180931B0102C0C0E0D0E03A
:100C2000012B49F480914F0190915001892B19F4C7
:100C300080E090E002C081E090E00E949303892B65
:100C400049F48091510180931A0110925001109241
:100C50004F0106C081E090E09093500180934F01D6
:100C6000CE01DF91CF911F910F9108950C943A0618
:100C700081E0089581E0089508950C943C061F9347
:100C8000CF93DF9300D000D01F92CDB7DEB749835A
:100C90005A836B8330916F0189819A81311114C01D
:100CA000662359F0222349F00E948A13182F682FD7
:100CB00089819A810E94331303C00E945E13182F0A
:100CC00069817A81812F04C00E948A1369817A81A7
:100CD0000F900F900F900F900F90DF91CF911F9179
:100CE0000C94ED06FC01262F4081518162817381B5
:100CF00084810C943F06CF93DF93EC0160E00E9467
:100D00007206BE01DF91CF910C943D060E94AF1494
:100D1000811102C00E944F150C943C040C943E04B7
:100D200008950C94900681E008950C949306CF9357
:100D3000C82F0E9491068C2F0E949506CF9108958E
:100D400008950E94BC0E0E94A0062FEF84E39CE051
:100D5000215080409040E1F700C000000C946D16D7
:100D60000F931F93CF93DF93EC0161E00E94720613
:100D70008C01BE010E943606882349F1BE01C801DC
:100D80000E942909882319F1BE01C8010E946A093D
:100D90008823E9F0BE01C8010E94950A8823B9F0B2
:100DA0008A81882369F001158CE5180731F00E3D22
:100DB0001C4531F40E944F150AC00E94A10607C0CD
:100DC000CE01DF91CF911F910F910C94380680E0F6
:100DD000DF91CF911F910F91089528E3829FC00169
:100DE0001124FC0127E0729FE00DF11D1124E60F94
:100DF000F11DEE0FFF1FEC50FF4F85919491089568
:100E0000CF93DF930E94ED060E94DE07EC0181156F
:100E100023E5920798F5811542E5940708F094C000
:100E2000C11580E2D807C0F4C11521E0D20708F04F
:100E3000C1C0C53AD10548F4C430D10508F0BAC0E4
:100E4000C130D10509F4B6C0B3C0CE01805E9109AE
:100E5000089708F4AFC0ACC0C11541E5D40708F04D
:100E60006EC0C11580E5D80708F04DC0C11520E45B
:100E7000D20708F49DC0DF70D06A9CC0811546E59A
:100E8000940700F5C11585E5D80708F077C0C115AE
:100E900024E5D20708F06DC0CE018370992721E0C8
:100EA00030E002C0220F331F8A95E2F78C2F86951F
:100EB000869540E2849FC0011124E901C82BD92BFB
:100EC000DA6878C081154AE5940778F4C11589E598
:100ED000D80708F05DC0C11528E5D20708F468C03E
:100EE000DC2FCC27C06FD06A65C090568115904228
:100EF00008F05EC08D2F8F710E947208DD27D062CE
:100F00008F71D82B57C0CE0174E0969587957A954E
:100F1000E1F783709C2F937021E030E002C0220F34
:100F2000331F9A95E2F73C68382BCF70C695C6956B
:100F300080E2C89FE0011124C22BD32B3BC0DC2FE1
:100F4000CC27C16FD06A36C08370992721E030E08A
:100F500002C0220F331F8A95E2F78C2F8695869563
:100F600040E2849FC0011124E901C82BD92BDC6821
:100F700021C0DC2FCC27C46FD06A1CC08C2F0E94EC
:100F800072088F71C82FD0E0DC2FCC27D06212C03E
:100F90008C2F8F700E94720894E0D695C7959A9511
:100FA000E1F7CF70D0E0DC2FCC27D069C82B02C08E
:100FB000C0E0D0E0CE01DF91CF9108958238910555
:100FC00069F1B0F48133910509F46DC048F48932B8
:100FD000910509F463C08A32910509F469C0089546
:100FE0008533910509F455C089339105B9F0089509
:100FF000833E910569F138F4803E9105B1F0823E5F
:10100000910509F10895863E9105A9F1873E910564
:10101000B9F1843E910509F064C023C0209101021A
:1010200020FD4FC021FD4DC008958091010280FD3B
:1010300044C08091020280FF44C08091010284FD7F
:1010400042C083EE4DC08091010282FF38C0F5CFCF
:101050008091010282FD33C08091020280FD31C087
:10106000ECCF8091020281FF32C08091010284FDA9
:101070002AC087EE35C08091010283FF26C0F5CFDC
:101080008091010283FD21C08091020281FD1FC079
:10109000ECCF8091010285FD1CC01DC08091010232
:1010A00085FD19C016C08091010286FD16C017C0CB
:1010B0008091010286FD13C010C089E311C082EE49
:1010C0000FC080EE0DC080E00BC086EE09C084EE3C
:1010D00007C089E205C085E303C08AE201C081E35D
:1010E00090E008959091010292FF0DC0282F287181
:1010F000283019F4877F846006C0282F247124309B
:1011000011F48B7F886093FF0DC0282F2871283140
:1011100019F4877E846106C0282F2471243111F4CC
:101120008B7E88612091020220FF0DC0382F38711C
:10113000383019F4877F816006C0382F3171313023
:1011400011F48E7F886021FF0DC0282F287128316F
:1011500019F4877E816106C0282F2171213111F495
:101160008E7E886194FD877E08950F931F93CF93A1
:10117000DF93C62FD42F122FFC0182818823C9F060
:1011800060935E010E942C1690935D0180935C0138
:1011900080E28C0F883008F057C0C77081E001C032
:1011A000880FCA95EAF7DF91CF911F910F910C94A8
:1011B0006A0C80915E01681330C080915C0190914F
:1011C0005D010E943816883C910538F500E20D0F4C
:1011D000CD17B9F080E28C0F883040F4C77081E001
:1011E00001C0880FCA95EAF70E94710C083028F5F3
:1011F00081E09D2F977001C0880F9A95EAF70E94B1
:101200006A0C812F0E94570C0830F0F4D77081E0EF
:1012100001C0880FDA95EAF70AC080E28C0F8830A7
:1012200098F4C77081E001C0880FCA95EAF7DF9192
:10123000CF911F910F910C94710C812FDF91CF9161
:101240001F910F910C94570CDF91CF911F910F912B
:1012500008959C01CB01233F4CE53407F9F078F465
:10126000283DFCE53F07B9F0293D4CE5340711F175
:10127000273D3C4531F526E241EE61EE1EC0253F9B
:10128000FCE53F0799F070F0263F3C45D1F427E29A
:1012900045EE66EE12C027E245EE0EC026E241EEB4
:1012A00060EE0BC027E245EE64EE07C026E241EE99
:1012B00062EE03C028E241E065EE0E94B50880E0DE
:1012C0000895FC018281882319F010925E0108952F
:1012D00081E00895CF93DF93EC01FB0182818823A5
:1012E00009F41FC1C230FCE5DF0708F41BC1C63199
:1012F0009CE5D90738F09E012A5F3C45293031052D
:1013000008F010C10E94C21490930202809301025F
:10131000C031ECE5DE0709F4C3C008F041C0C830B5
:101320008CE5D80709F49AC0F0F4C430ECE5DE0788
:1013300009F487C068F4C2308CE5D80709F477C097
:10134000C330DC4509F0E3C080910102826076C0C1
:10135000C630ECE5DE0709F46EC008F07BC0809172
:10136000010288606BC0CC308CE5D80709F485C0D9
:1013700068F4CA30ECE5DE0709F474C008F079C0FF
:101380000E94BC0E80910102806858C0CE308CE56E
:10139000D80709F476C008F07FC0809101028BC0A5
:1013A000CB3FECE5DE0709F44FC018F5C3318CE5FF
:1013B000D80709F47DC078F4C131ECE5DE0709F403
:1013C00073C0C231DC4509F0A2C00E94BC0E8091FE
:1013D00001028F7733C0C5318CE5D80709F472C09C
:1013E00008F486C0CA3FDC4509F091C08091020232
:1013F0003EC0CF3FFCE5DF0709F45FC058F4CD3FA6
:101400009CE5D90709F444C008F43FC0809102026A
:1014100082602DC0C130FDE5DF0709F475C008F416
:101420005DC0C230DD4509F072C080E06EC08091C1
:101430000102816003C080910102806180930102FA
:1014400066C08091010211C0809102028260809387
:1014500002025DC0809101028062F0CF80910102A2
:101460008064ECCF8091010288608460E7CF816066
:10147000EECF809101028E7FE1CF809101028D7FBE
:10148000DDCF80910102877FD9CF8091020218C001
:10149000809102028D7FDBCF809101028F7ECECFC3
:1014A000809101028F7DCACF809101028F7BC6CFD0
:1014B00080910102877F8B7FC1CF809102028D7F57
:1014C0008E7FC5CF8091010282FB222720F991E017
:1014D000922790FB82F990FB83F9B0CF80910202B2
:1014E000982F909591708E7F892B90FB81F9AFCFCB
:1014F0000E94BC0E8091010287FB222720F991E017
:10150000922790FB87F99ACF81E00E945115809134
:101510000102909102020E94D3140E94BC0E80E04E
:1015200001C081E0DF91CF910895CF93DF938631A1
:101530009C4541F5EB010E940B14982F8A81209164
:101540001C0130911D01882379F09A7A81E009F419
:1015500080E080935F01911102C069E201C065E300
:10156000C9010E9498150AC080915F01811102C0D3
:1015700069E201C065E3C9010E949A150E944C14FA
:1015800080E001C081E0DF91CF91089590936501E3
:10159000809364010895E0916401F09165013097B2
:1015A00021F00190F081E02D099480E00895E09110
:1015B0006401F0916501309721F00280F381E02D04
:1015C0000994089520916201309163012817390729
:1015D00071F09093630180936201E0916401F09156
:1015E0006501309721F00680F781E02D0994089578
:1015F00020916001309161012817390771F09093B3
:10160000610180936001E0916401F0916501309780
:1016100021F00084F185E02D0994089585B7806854
:1016200085BF85B7806885BF089508950C94150B14
:101630000C94160B0C94150B0E940E0B0E94E905DE
:101640000C94180B81E008950C94220B0E94231631
:101650000E9440040E947E160C941A0BAF92BF9217
:10166000CF92DF92EF92FF920F931F93CF93DF936E
:10167000CDB7DEB72A970FB6F894DEBF0FBECDBF49
:101680000E945F050E94240B811111C08FEF898396
:101690008A831B820E942C168160782F9D838C8305
:1016A00049815A816B818D810E94C40B40C087E6BD
:1016B000A82E81E0B82E00E010E0C02E802F0E94FE
:1016C000C605E82EF501D1905F01D82631F40F5FF1
:1016D0001F4F0830110589F7D9CF8091E00181FDB6
:1016E0000E94CC0580E0FF24F3949D2D9F21D1F032
:1016F0008E83CF82EF2081E009F480E088870E940A
:101700002C168160782F9A8789874E815F81688542
:101710008A850E94C40BF801E959FE4F8081F826A2
:10172000F08205C08F5FFF0C8730F9F6D0CF0E94A2
:10173000CB0A909166018917B1F00E94CB0A809381
:1017400066012A960FB6F894DEBF0FBECDBFDF91BB
:10175000CF911F910F91FF90EF90DF90CF90BF90AE
:10176000AF900C9497062A960FB6F894DEBF0FBE82
:10177000CDBFDF91CF911F910F91FF90EF90DF9040
:10178000CF90BF90AF900895CF93DF93CDB7DEB7E2
:101790002B970FB6F894DEBF0FBECDBF4F8358878F
:1017A00069877A878B87DE01119686E0FD011192A9
:1017B0008A95E9F785E0FE01379601900D928A95AA
:1017C000E1F749815A816B817C818D819E810E94E4
:1017D00075112B960FB6F894DEBF0FBECDBFDF910B
:1017E000CF910895FC01808191810E94CC130895CE
:1017F000CF93882371F1C82F8CEF8C0F813AD0F4EE
:101800006C2F80911C0190911D010E94621588230C
:1018100049F06C2F80911C0190911D010E949A1536
:101820000E944C146C2F80911C0190911D010E940C
:1018300098150CC080E28C0F883058F4C77081E096
:1018400001C0880FCA95EAF70E940E14CF910C943C
:101850004C14CF910895882349F1682F8CEF860F9F
:10186000813A38F480911C0190911D010E949A15D3
:101870000CC080E2860F883050F4677081E001C0B0
:10188000880F6A95EAF70E9414140C944C148BE5A7
:10189000860F833020F480E090E00C94E20A685ACE
:1018A000673120F480E090E00C94F80A0895CF931B
:1018B000C82F0E94F80BC93349F42FEF87EE93E04D
:1018C000215080409040E1F700C000008C2FCF9164
:1018D0000C942B0C882321F00E940E140C944C14B1
:1018E0000895882321F00E9414140C944C14089538
:1018F000CF92DF92EF92FF920F931F93CF93DF93DC
:101900007C01D62FC72FFC01158112951F70028113
:1019100001110E942B140E940414882399F00023C3
:1019200089F08C2F807F803421F080E28D0F883009
:1019300048F082E00E9496140E94041491E0D82E90
:10194000D92601C0D12CCC2EC2948FE0C8228C2D78
:1019500090E08C30910508F08DC1FC01EA5AFF4FF0
:101960000C94F61C8C2F807FCF70882311F0C295C9
:10197000C07F002399F0CC2309F468C180E28D0F69
:10198000883010F0D11104C08C2F0E940E1403C0B7
:101990008C2F0E941E140E944C1458C18D2F0E943F
:1019A0002B0CCC2309F466C180E28D0F883010F037
:1019B000D11104C08C2F0E94141403C08C2F0E94DC
:1019C00024140E944C1456C18C2F807FCF7080321B
:1019D00011F0C295C07FDD2319F0D130C9F022C0CB
:1019E000002371F0112341F0113031F40E943114C1
:1019F0008C2B0E9439143EC10E9431148C2B1DC0C7
:101A0000112319F0113009F435C10E94421425C088
:101A1000002321F0163008F02DC10EC0153008F05B
:101A200029C11BC0002361F0112331F0F70185812A
:101A300080FF0CC18F7085838C2F0E946A0C1AC1A5
:101A4000112359F0D93309F012C1FFEF07EE13E06B
:101A5000F15000401040E1F708C18C2F0E94710C3A
:101A600009C18C2F837009F047C0011107C12D2FC8
:101A7000229526952770220F220F6D2F6F70862FCB
:101A800090E0A0E0B0E0022E04C0880F991FAA1FCA
:101A9000BB1F0A94D2F7D4FF10C04FE050E060E0C3
:101AA00070E004C0440F551F661F771F2A95D2F7B8
:101AB000409550956095709503C040E050E0BA01A4
:101AC000C695C695C3708A019B01082B192B2A2B3A
:101AD0003B2BC901B801C23049F058F4C13019F0AC
:101AE0000E944912CBC00E943712C8C00E945B12EC
:101AF000C5C00E943512C2C0002319F08C2F81701E
:101B000001C08695882309F4B9C02D2F229526950A
:101B10002770220F220F6D2F6F70862F90E0A0E0AC
:101B2000B0E0022E04C0880F991FAA1FBB1F0A94A1
:101B3000D2F7D4FF10C04FE050E060E070E004C086
:101B4000440F551F661F771F2A95D2F74095509571
:101B50006095709503C040E050E0BA01C695C69507
:101B6000C3708A019B01082B192B2A2B3B2BC9011F
:101B7000B801C23049F058F4C13019F00E940E1378
:101B80007DC00E94FC127AC00E94201377C00E9480
:101B90006F1274C0CF70002339F08C2F0E94951201
:101BA0008D2F0E946A0C6AC08D2F0E94710C8C2FA1
:101BB0000E94B61263C0D23F01F128F4D03F41F039
:101BC000D13FA1F03FC0D33FF9F0D43F39F13AC043
:101BD000002341F0153008F04DC08C2F8F710E940A
:101BE000DB1248C0163008F045C0F7CF002339F0AB
:101BF0008C2F8F710E9495123DC00023C9F38C2F4A
:101C00008F710E94B61236C0002329F08C2F8F717D
:101C10000E9480122FC00E947B122CC0002349F02A
:101C2000CF718C2F0E94951263E08C2F0E9481143B
:101C300021C081E00E9496141230E0F082E00E9400
:101C4000961418C0002331F0112391F28D2F0E94B9
:101C5000F80B10C0112399F2D93349F41FEF27EE86
:101C600033E0115020403040E1F700C000008D2FDC
:101C70000E942B0C88EF8C0D843020F40E94CB0A3C
:101C80000E949706DD20C9F00E94001480FD15C057
:101C9000F70112820E94FA130E949512C7010E9456
:101CA0007E0E0E94FA13DF91CF911F910F91FF904A
:101CB000EF90DF90CF900C94B612DF91CF911F91EF
:101CC0000F91FF90EF90DF90CF9008950F931F93A7
:101CD000CF93DF93EC01688179818A810E94D713C9
:101CE0008C010E9432130E942312B801CE010E947F
:101CF000780CDF91CF911F910F910895CF93DF93CF
:101D0000EC01988189812B813C81232B31F08F3F1D
:101D100031F481E09F3F19F403C081E001C080E00D
:101D200080FD19C0CE010E94B00681110CC00E9436
:101D30000414882381F08A81882369F082E0DF918E
:101D4000CF910C949614CE010E94660ECE01DF91C5
:101D5000CF910C947B06DF91CF9108950E942B14B4
:101D60000E942E140C944C1480911C0190911D0122
:101D70000E949C150C94AE0E0E941B140C94B40E81
:101D8000E92FE295EF704E2F50E0FA013297EE30D6
:101D9000F105B0F4EE59FF4F0C94F61C803F91F022
:101DA00018F4883E68F40EC0843F51F40BC0883E9E
:101DB00048F0813F29F406C093FB882780F90895F5
:101DC00080E0089581E008950E94CC130E94C00E27
:101DD0000895CF93DF9300D000D01F92CDB7DEB728
:101DE0000F900F900F900F900F90DF91CF9108956B
:101DF000CF93DF9300D000D000D0CDB7DEB72696CA
:101E00000FB6F894DEBF0FBECDBFDF91CF9108951E
:101E10001F93CF93DF93C091700116E08091710101
:101E2000C81799F0D0E01C9FF0011D9FF00D112400
:101E3000EE58FE4F4081518162817381848195818A
:101E40000E94F80E2196C770E9CFDF91CF911F91C4
:101E500008954091A2015091A3016091A401709155
:101E6000A5018091A6019091A7010C94F80E0F9303
:101E70001F93CF93DF938091A70182958F7009F014
:101E80005DC08091A401882309F458C0809170013D
:101E9000109171016091A2017091A301C091A501FF
:101EA000D091A60191E06F3F09F090E0292F06E064
:101EB000811709F443C0209721F07F3F21F030E0E3
:101EC00003C031E001C0322F90E030FD34C0089FE4
:101ED000F001099FF00D1124DF01AE58BE4F11969D
:101EE0003C911197371327C03C91361324C01296AA
:101EF0003C91129731111FC013964D915C9114972C
:101F00004C1B5D0B483C5105B0F48091A7018F70CC
:101F100080618093A701E958FE4F80818F708061B6
:101F2000808382EA91E00E947E0EDF91CF911F9123
:101F30000F910C94080F01968770BACFDF91CF9163
:101F40001F910F9108959F92AF92BF92CF92DF920F
:101F5000EF92FF920F931F93CF93DF93CDB7DEB72E
:101F600061970FB6F894DEBF0FBECDBF8C0185E040
:101F7000F801DE011D9601900D928A95E1F7F801B6
:101F800040815181E2809091A2016091A301209152
:101F9000A5013091A6012115310531F06F3F31F4D3
:101FA00081E09F3F19F403C081E001C080E0F82F79
:101FB000F1709F2E80FD46C1F801A380B48082EAB3
:101FC000C82E81E0D82EF090A401F501E21BF30B9E
:101FD000FF2009F4DFC08091A701E83CF10508F07B
:101FE0009BC0282F207F09F052C0561313C04913FD
:101FF00011C0FE2CE1100EC08F7080618093A7018C
:102000000E94290FC6010E947E0E8091A701F8014F
:10201000858358C1AB2831F05F3F31F481E04F3FF9
:1020200019F403C081E001C080E080FD03C081E0BD
:102030008E2502C080E090E0F82FF170FF2E80FF27
:102040001CC0809170012091710136E0821709F463
:1020500017C190E0389FF001399FF00D1124EE5820
:10206000FE4F6181561306C06081461303C0628132
:10207000E61203C001968770E9CFFE2CEE2009F42A
:1020800021C18091A70181608093A7015AC0561396
:1020900006C0491304C0E11002C0F8019FC04D877B
:1020A0005E878D859E850E94E40E882379F1EE205F
:1020B00069F12091A701822F82958F7090E002979D
:1020C00074F08091A2019091A30198878F83198663
:1020D000BB86AA862C87CE0107960E947E0E86E0DC
:1020E000F801A2EAB1E001900D928A95E1F70E9411
:1020F000370F0E94290F0DC0561729F14D875E87B3
:102100008D859E850E94E40E81112CC0C8010E941D
:102110007E0EFF24F394D6C0282F207F69F77A2DF6
:10212000B98AA88A6E2D89890E94E90E82EA91E017
:102130000E947E0E86E0F60111928A95E9F70E94D0
:10214000290FF12CBFC04913D9CFE110D7CFF80127
:102150008583C8010E947E0E86E0F60111928A9561
:10216000E9F7B0C0EE2091F22091A701822F82956D
:102170008F7090E002970CF4B2CF8091A201909101
:10218000A3019A8389831B82BD82AC822E83CE01F8
:102190000196A3CFE83CF10508F047C0FE2CEE20E5
:1021A00009F4B4CF561330C049132EC02091A701B3
:1021B00020FD21C0822F82958F70482F50E041155D
:1021C0005105C9F0F80125834F30510541F08F5F6B
:1021D000982F9295907F822F8F70892B8583C801CD
:1021E0000E947E0E86E0F801A2EAB1E001900D9215
:1021F0008A95E1F742C086E0F801A2EAB1E00190D9
:102200000D928A95E1F75EC04D875E878D859E852C
:102210000E94E40E811163CF8091A70181608093B9
:10222000A701C8010E947E0E4DC07A2DB98AA88AE6
:102230006E2D89890E94E90E86E0F60111928A9539
:10224000E9F71BC0EE2009F461CF4D875E878D85CD
:102250009E850E94E40EF82E882309F457CF86E06D
:10226000F801A2EAB1E001900D928A95E1F782EAC5
:1022700091E00E94F20B0E94370F0E94290F22C0AA
:102280004D875E878D859E850E94CC13292F2295D0
:102290002F70223028F49F7039F0811105C00BC0D7
:1022A000243028F49F7049F4805E883020F0C80103
:1022B0000E947E0E9F2CF92C05C0F8019581907F1D
:1022C00099F7F9CF8F2D61960FB6F894DEBF0FBE48
:1022D000CDBFDF91CF911F910F91FF90EF90DF90D5
:1022E000CF90BF90AF909F9008951F93CF93DF93AF
:1022F000CDB7DEB72C970FB6F894DEBF0FBECDBFBB
:102300004F83588769877A878B879C87CE0107968A
:102310000E94A30F8823D1F09F8188852A853B8561
:10232000232B31F08F3F31F481E09F3F19F403C03C
:1023300081E001C080E080FD47C04F8158856985FC
:102340007A858B859C850E94F80E3EC086E0FE0152
:102350003796DE01119601900D928A95E1F7FF8183
:10236000E8856A857B856115710531F0EF3F31F4B1
:1023700081E0FF3F19F403C081E001C080E080FDEF
:1023800023C02091710130E0C9010196877099271F
:102390004091700150E084179507F1F1F983EA83C9
:1023A0007D836C8396E0929FD001939FB00D1124A2
:1023B000AE58BE4FFE01319601900D929A95E1F70D
:1023C000809371010E94080F16E080917001909136
:1023D0007101891771F1189FC00111248E589E4F09
:1023E0000E94A30F882329F1E09170011E9FF00144
:1023F0001124EE58FE4F40815181628173818481A6
:1024000095810E94F80E8091700190E0019687708E
:10241000992780937001D9CF0E94BC0E1092710150
:1024200010927001E2EAF1E086E0DF011D928A95E8
:10243000E9F72C960FB6F894DEBF0FBECDBFDF9143
:10244000CF911F910895089508950C9424120C942F
:1024500025120E9427126093CF017093D0018093C0
:10246000D1019093D2010C94AE0E0C9429120F93CB
:102470001F930091CF011091D0012091D101309193
:10248000D201602B712B822B932B1F910F910C94F7
:1024900029120F931F930091CF011091D001209129
:1024A000D1013091D20160237123822393231F91A4
:1024B0000F910C9429120F931F930091CF0110914B
:1024C000D0012091D1013091D2016027712782275C
:1024D00093271F910F910C9429120C9424120E949F
:1024E0006D126093CB017093CC018093CD019093DA
:1024F000CE010C94AE0E60E070E0CB010C946F1234
:102500000F931F9341E050E060E070E08A019B016F
:1025100004C0000F111F221F331F8A95D2F7C90173
:10252000B8011F910F910C946F120F931F9341E00C
:1025300050E060E070E004C0440F551F661F771F35
:102540008A95D2F78091CB019091CC01A091CD01D9
:10255000B091CE018A019B01082B192B2A2B3B2B12
:10256000C901B8011F910F910C946F120F931F9323
:1025700041E050E060E070E004C0440F551F661F6A
:10258000771F8A95D2F74095509560957095809108
:10259000CB019091CC01A091CD01B091CE018A01E7
:1025A0009B01082319232A233B23C901B8011F914A
:1025B0000F910C946F120F931F9341E050E060E075
:1025C00070E004C0440F551F661F771F8A95D2F72D
:1025D0008091CB019091CC01A091CD01B091CE0121
:1025E0008A019B01082719272A273B27C901B8011F
:1025F0001F910F910C946F120F931F930091CB01B9
:102600001091CC012091CD013091CE01602B712B26
:10261000822B932B1F910F910C946F120F931F938A
:102620000091CB011091CC012091CD013091CE01D0
:1026300060237123822393231F910F910C946F12B7
:102640000F931F930091CB011091CC012091CD01EC
:102650003091CE0160277127822793271F910F9118
:102660000C946F12089527E0929F800D1124E82F9B
:10267000E695E695E695877051E001C0550F8A957D
:10268000EAF785E0E89FF0011124E855FE4F20E0CD
:1026900030E070E04081CB01022E02C09695879514
:1026A0000A94E2F78170819584278523842781939A
:1026B0002F5F3F4F2530310569F7089527E0929F3E
:1026C000800D1124682F669566956695982F9770F2
:1026D00085E0689FB001112440E050E080E0FB01FC
:1026E000E40FF51FE855FE4F208130E0092E02C0AF
:1026F000369527950A94E2F721703327042E01C0FE
:10270000220F0A94EAF7822B4F5F5F4F4530510545
:1027100031F70895BF92CF92DF92EF92FF920F931D
:102720001F93CF93DF938C01C090CB01D090CC014D
:10273000E090CD01F090CE018091CF019091D00139
:10274000A091D101B091D201C82AD92AEA2AFB2A44
:10275000CFE1D0E0D701C6010C2E04C0B695A795F5
:10276000979587950A94D2F780FD04C0219790F73A
:10277000B12C07C0BC2EB8018C2F0E940007019716
:10278000A9F38B2DDF91CF911F910F91FF90EF90C7
:10279000DF90CF90BF900895CF93DF93EC010E941C
:1027A0008A13BE010E940007DF91CF9108951F9305
:1027B000CF93DF93EB0190916F01992321F0CB012F
:1027C0000E94CC1313C0882349F0CB010E948A13C6
:1027D000182F682FCE010E94331304C0CB010E9432
:1027E0005E13182FBE01812F0E940007DF91CF9149
:1027F0001F9108958091D3018595859585950895BC
:102800008091D301877008959091D301977081E0F2
:1028100009F480E008958091DF0108959091DF012F
:10282000892B8093DF01089580959091DF018923A2
:102830008093DF0108951092DF0108959091DE01E9
:10284000892B8093DE01089580959091DE01892384
:102850008093DE0108951092DE0108951092DD014B
:1028600008958091D401089508950C9434140C9423
:1028700035149091D401981721F08093D4010C94D1
:10288000371408958091D401882329F01092D4013F
:1028900080E00C9437140895E0911C01F0911D0123
:1028A0008091DF018083E0911C01F0911D019081F6
:1028B0008091DE01892B8083E0911C01F0911D0144
:1028C00090818091DD01892B80838091D4018823C0
:1028D00081F0E0911C01F0911D019081892B808392
:1028E00080911C0190911D010E94561581110E943A
:1028F000421480911C0190911D010C94D70A0C94F4
:10290000341498E0899F90011124262B2093D30141
:102910000E9495128091D3018595859585950C949B
:102920007F141092D30180E00C947F142091D30186
:10293000809582238093D301982F977079F430E0AB
:10294000482F082E000C550B2417350739F08595B4
:10295000859585950E94B6120C949114089580E097
:1029600090E00E94111D21E08C3E9E4F09F020E076
:10297000822F089582E090E00C94091D83E090E09E
:102980000C94091DCF9384E090E00E94091DC82F8C
:1029900081E290E00E94091D2C2F30E0A901582B04
:1029A000CA01CF910895CF93C92F682F84E090E09A
:1029B0000E94171D6C2F81E290E0CF910C94171D9F
:1029C000AB01BC018FE090E00C94291DAB01BC0170
:1029D00083E190E00C94291D60E070E0CB010C9441
:1029E000E61460E070E0CB010E94E0140C94EC145B
:1029F0006CEE7EEF80E090E00E94351D60E082E0AA
:102A000090E00E94171D60E083E090E00E94171D97
:102A10001092CF011092D0011092D1011092D201E8
:102A200060E084E090E00E94171D60E081E290E0A9
:102A30000E94171D60E085E090E00E94171D60E095
:102A400086E090E00E94171D6FEF87E090E00E9403
:102A5000171D40E050E0BA0188E090E00E94291D77
:102A600060E08DE090E00E94171D40E050E0BA0168
:102A700088E190E00E94291D60E087E190E00E94DB
:102A8000171D40E050E0BA018CE190E00E94291D42
:102A900060E080E290E00E94171D0C94F1140C9409
:102AA000F814682F8EE090E00C94171DFC0132960C
:102AB00097E080E0915029F021912223D9F38F5F94
:102AC000F9CF0895662349F0FC01329608962191CA
:102AD000621729F0E817F907D1F780E0089581E03F
:102AE00008959C01FC0132969FEF80E041914617CA
:102AF00089F09F3F19F4411101C0982F8F5F8630F4
:102B0000A9F79F3F39F0F901E90FF11D97FDFA95FB
:102B10006283089508959C012A5F3F4FFC01428122
:102B2000461301C01282019682179307B9F70895E0
:102B30000C9471150C948B15029626E0FC011192F1
:102B40002A95E9F7089508950C94A3150C94A315FC
:102B5000CF930E94A6150E945F050E94A415C0E0B5
:102B60008C2F0E94C605811104C0CF5FC830C1F709
:102B700001C081E0CF9108950C94A3150C94BC156D
:102B80000E94BE1580910702843049F11092E10144
:102B900020E488E190E00FB6F894A8958093600057
:102BA0000FBE2093600080E00E9497060E94BE1531
:102BB00083B7817F846083BF83B7816083BF78944C
:102BC000889583B78E7F83BF0FB6F894A8958091C0
:102BD0006000886180936000109260000FBE0895CD
:102BE0000C94A3150E94BC0E0E94CB0A0E9497066B
:102BF0000C94F0151F920F920FB60F9211248F9321
:102C00009F93AF93BF938091E101811113C0809195
:102C1000FD019091FE01A091FF01B091000241964B
:102C2000A11DB11D8093FD019093FE01A093FF01B2
:102C3000B0930002BF91AF919F918F910F900FBE03
:102C40000F901F90189582E084BD93E095BD9AEF98
:102C500097BD80936E0008952FB7F8948091FD0181
:102C60009091FE01A091FF01B09100022FBF089545
:102C70009C014FB7F8948091FD019091FE01A091C5
:102C8000FF01B09100024FBF821B930B089578940F
:102C90001F920F920FB60F9211248F939F93AF93B1
:102CA000BF938091FD019091FE01A091FF01B09131
:102CB00000020196A11DB11D8093FD019093FE01BC
:102CC000A093FF01B0930002BF91AF919F918F91AC
:102CD0000F900FBE0F901F90189587E797E790937E
:102CE0000108809300089AE088E10FB6F894A8954F
:102CF000809360000FBE90936000FFCF0E94AF14DE
:102D0000811102C00E944F150E94BA148093E00105
:102D10000E94C21490930202809301020E94BE148A
:102D2000682F70E080E090E00C9435128091EA0109
:102D3000089508950895CF93DF93EC010E943B1806
:102D4000823011F0843039F581E08093E9008FEF13
:102D50009091E800815095FD06C095ED9A95F1F7A8
:102D600000008111F5CF8091E80085FF14C040E09C
:102D700050E068E070E0CE010E9458188091E800B1
:102D80008E778093E80088E0FE01A2EEB1E001902A
:102D90000D928A95E1F7DF91CF9108950895809182
:102DA0000602811109C00E94E9190E94461A809109
:102DB000E20084608093E200089510920602089574
:102DC000089508950C94F21542E061EC81E00C94B2
:102DD000621980910902833009F460C030F48130B7
:102DE00071F0823009F499C008958A3009F485C0E1
:102DF0008B3009F46BC0893009F0A7C020C08091E6
:102E00000802813A09F0A1C08091E800877F809391
:102E1000E80080910C0290910D02892B21F468E06A
:102E200082EE91E003C060E080E090E070E00E94FC
:102E3000A3188091E8008B778093E8000895809133
:102E40000802813209F081C080910C0290910D023C
:102E5000892B09F07AC08091E800877F8093E80091
:102E60008091E80082FD05C0809107028111F8CFB2
:102E70006CC02091F3008091F20090E0922B0297B9
:102E800029F48091F1008B7F813021F48091F10051
:102E90008093EA018091E8008B7753C0809108020B
:102EA000813A09F052C080910C0290910D02892B59
:102EB00009F04BC08091E800877F8093E800809103
:102EC000E80080FFFCCF8091280136C08091080285
:102ED0008132D9F580910C0290910D02892BA9F5D0
:102EE0008091E800877F8093E8000E949719809185
:102EF0000A02809328010C94BC0E80910802813252
:102F000021F58091E800877F8093E8000E9497195F
:102F100080910B028093EB01089580910802813A21
:102F2000A1F48091E800877F8093E8008091E80019
:102F300080FFFCCF8091EB018093F1008091E8004D
:102F40008E778093E8000C949719089584B7877F53
:102F500084BF0FB6F894A895809160008861809333
:102F60006000109260000FBE90E080E80FB6F89409
:102F700080936100909361000FBE0E941C0B0E9421
:102F8000E9190E94461A8091E20084608093E20071
:102F900078940E94DB1C0E94260B8EE191E00E9437
:102FA000C60A80910702853069F40E94C01580919D
:102FB00005028823B1F30E94A815882391F30E948B
:102FC0004218EFCF0E942E0BECCF0C94E717292F5D
:102FD000332723303105C1F058F42130310579F021
:102FE00022303105C1F582E290E02CED32E037C0AD
:102FF0002132310511F12232310531F12CC082E14B
:1030000090E02EEF32E02BC099278130910561F0DE
:1030100040F08230910559F00397E9F4E4EBF2E0D7
:1030200008C0E8EDF2E005C0EAECF2E002C0EAEB2D
:10303000F2E0849190E09F0112C0672B61F489E077
:1030400090E02EEE32E00BC0672B29F480E490E094
:1030500020E133E004C080E090E020E030E0FA01BD
:1030600031832083089580910702843011F081E03C
:10307000089582E008958091EC01811102C00C94C2
:103080003318089580E189BD82E189BD09B400FE4D
:10309000FDCF8091D8008F7D8093D8008091E00093
:1030A00082608093E0008091E00081FDFCCF089574
:1030B000CF92DF92EF92FF920F931F93CF93DF9304
:1030C000EC018B017A010E94B619811133C0E11421
:1030D000F10439F0F70180819181081B190BC80FA9
:1030E000D91FC12CD12C0115110519F18091E800CF
:1030F00085FD16C08091E8008E778093E800E1148A
:10310000F10449F0F70180819181C80ED91ED18266
:10311000C08285E00FC00E94B619882321F30AC03F
:1031200089918093F10001501109FFEFCF1ADF0A56
:10313000DACF80E0DF91CF911F910F91FF90EF9058
:10314000DF90CF90089520910E0230910F02261744
:10315000370748F06115710539F42091E8002E77A2
:103160002093E80001C0B901FC0120E06115710560
:1031700079F1809107028823F1F18530F1F1809196
:10318000E80083FD3CC08091E80082FD2EC0809164
:10319000E80080FFEBCF2091F3008091F20090E0F7
:1031A000922B6115710551F08830910538F4219109
:1031B0002093F100615071090196F3CF21E0089747
:1031C00009F020E08091E8008E778093E800CECF70
:1031D0002111CFCF0AC080910702882361F085308A
:1031E00061F08091E80083FD0AC08091E80082FFD1
:1031F000F2CF80E0089582E0089583E0089581E0B1
:10320000089520910E0230910F022617370748F0DB
:103210006115710539F42091E8002E772093E800BC
:1032200001C0B901FC0120E06115710591F18091A7
:103230000702882309F440C0853009F43FC080911B
:10324000E80083FD3DC08091E80082FD2FC08091A1
:10325000E80080FFE9CF2091F3008091F20090E038
:10326000922B6115710559F08830910540F4249135
:103270002093F1003196615071090196F2CF21E05F
:10328000089709F020E08091E8008E778093E800AD
:10329000CBCF2111CCCF0AC080910702882361F0E7
:1032A000853061F08091E80083FD0AC08091E800DC
:1032B00082FFF2CF80E0089582E0089583E00895D0
:1032C00081E00895982F973068F59093E90098175A
:1032D00039F07091EC002091ED005091F00003C0A6
:1032E000242F762F50E021FD02C09F5FECCF30915C
:1032F000EB003E7F3093EB003091ED003D7F30934B
:10330000ED003091EB0031603093EB007093EC00F6
:103310002093ED005093F0002091EE0027FDE5CFC3
:1033200080E008958F708093E90081E00895809196
:10333000080287FF11C08091E80082FD05C08091DE
:1033400007028111F8CF11C08091E8008B770BC084
:1033500080910702882349F08091E80080FFF8CF30
:103360008091E8008E778093E80008952091E40032
:103370003091E50095E64091EC00842F817040FF8C
:1033800023C08091E80080FD1DC080910702882342
:1033900099F0853099F08091EB0085FD11C0409146
:1033A000E4005091E5002417350729F3915011F0FE
:1033B0009A01E1CF84E0089582E0089583E00895C2
:1033C00081E0089580E008954091E80042FFDDCF5C
:1033D00008950E94571A0E945F1AE0EEF0E0808183
:1033E00081608083E8EDF0E080818F77808319BC75
:1033F000A7EDB0E08C918E7F8C9380818F7E80834F
:103400001092060208950F931F93CF93DF930E94AB
:10341000571A0E945F1AC8EDD0E088818F778883A1
:1034200088818068888388818F7D888319BC109209
:10343000070210920302109205021092040200EE9D
:1034400010E0F80180818B7F808388818160888390
:1034500042E060E080E00E946219E1EEF0E08081ED
:103460008E7F8083E2EEF0E08081816080838081C6
:1034700088608083F80180818E7F8083888180616D
:103480008883DF91CF911F910F910895E8EDF0E0CF
:1034900080818F7E8083E7EDF0E080818160808392
:1034A00084E082BF81E0809306020C94031AE8ED69
:1034B000F0E080818E7F80831092E2000895109268
:1034C000DA001092E10008951F920F920FB60F924A
:1034D00011242F933F934F935F936F937F938F9319
:1034E0009F93AF93BF93EF93FF938091E10082FF8F
:1034F0000BC08091E20082FF07C08091E1008B7FCA
:103500008093E1000E94DA1C8091DA0080FF1FC0E6
:103510008091D80080FF1BC08091DA008E7F80935D
:10352000DA008091D90080FF0DC080E189BD82E181
:1035300089BD09B400FEFDCF81E0809307020E949F
:10354000CF1605C019BC109207020E94DD168091AB
:10355000E10080FF19C08091E20080FF15C08091DA
:10356000E2008E7F8093E2008091E2008061809390
:10357000E2008091D80080628093D80019BC85E079
:10358000809307020E94E1168091E10084FF30C021
:103590008091E20084FF2CC080E189BD82E189BD79
:1035A00009B400FEFDCF8091D8008F7D8093D800B4
:1035B0008091E1008F7E8093E1008091E2008F7E18
:1035C0008093E2008091E20081608093E20080912C
:1035D0000302882311F084E007C08091E30087FD97
:1035E00002C081E001C083E0809307020E94E216DE
:1035F0008091E10083FF29C08091E20083FF25C014
:103600008091E100877F8093E10082E08093070250
:10361000109203028091E1008E7F8093E1008091FF
:10362000E2008E7F8093E2008091E20080618093CF
:10363000E20042E060E080E00E9462198091F000C8
:1036400088608093F0000E94E016FF91EF91BF9197
:10365000AF919F918F917F916F915F914F913F912A
:103660002F910F900FBE0F901F9018951F920F92E1
:103670000FB60F9211242F933F934F935F936F9345
:103680007F938F939F93AF93BF93CF93DF93EF93EA
:10369000FF93C091E900CF708091EC00D82FD170DA
:1036A00080FDD0E81092E9008091F000877F809340
:1036B000F00078940E947A1B1092E9008091F0004B
:1036C00088608093F000CD2BCF70C093E900FF910C
:1036D000EF91DF91CF91BF91AF919F918F917F91AA
:1036E0006F915F914F913F912F910F900FBE0F906F
:1036F0001F9018951F93CF93DF93CDB7DEB7AA978E
:103700000FB6F894DEBF0FBECDBFE8E0F2E08091C7
:10371000F100819322E0E031F207C9F70E94E91637
:103720008091E80083FF2EC18091080290910902E8
:10373000492F50E04A30510508F024C1FA01E05900
:10374000FF4F0C94F61C803821F0823809F01AC122
:1037500008C08091040290910502992389F082604B
:103760000FC080910C028F70873008F00BC18093DE
:10377000E9008091EB0085FB882780F91092E90031
:103780009091E800977F9093E8008093F100109269
:10379000F100D1C0282F2D7F09F0F4C0882319F043
:1037A000823061F0EFC080910A02813009F0EAC0F6
:1037B000933009F080E0809305022EC080910A02C8
:1037C00081112AC080910C028F702FEF280F2630B4
:1037D00008F0D8C08093E9002091EB0020FF1CC0C6
:1037E000933021F48091EB00806214C09091EB0043
:1037F00090619093EB0021E030E0A90102C0440FFA
:10380000551F8A95E2F74093EA001092EA008091F2
:10381000EB0088608093EB001092E9008091E80053
:10382000877F8093E8000E949719ACC08111AAC0DD
:1038300010910A021F778091E3008078812B80939A
:10384000E3008091E800877F8093E8000E94971949
:103850008091E80080FFFCCF8091E3008068809336
:10386000E300111102C082E001C083E080930702EF
:1038700089C08058823008F085C080910A029091FA
:103880000B028C3D53E0950779F583E08A838AE249
:1038900089834FB7F894DE01139620E03EE051E2B1
:1038A000E32FF0E050935700E49120FF03C0E2952E
:1038B000EF703F5FEF708E2F90E0EA3010F0C79608
:1038C00001C0C0968D939D932F5F243149F74FBF60
:1038D0008091E800877F8093E8006AE270E0CE0183
:1038E00001960E94A31816C060910C0270910D02FF
:1038F000AE014F5F5F4F0E94E517BC01892B09F4B1
:1039000041C09091E800977F9093E80089819A8167
:103910000E9401198091E8008B778093E80032C003
:10392000803881F58091E800877F8093E80080915E
:1039300003028093F1008091E8008E7772CF8111AD
:1039400021C080910A0290910B0299270297D4F42A
:103950008091E800877F8093E80080910A0280933D
:1039600003020E94971980910302811106C0809181
:10397000E30087FD02C081E001C084E0809307027C
:103980000E94E4168091E80083FF0AC08091E8005D
:10399000877F8093E8008091EB0080628093EB004A
:1039A000AA960FB6F894DEBF0FBECDBFDF91CF91C0
:1039B0001F9108950895CF93809107028823A1F065
:1039C000C091E900CF709091EC00892F817090FD3B
:1039D00080E8C82B1092E9008091E80083FD0E94E6
:1039E0007A1BCF70C093E900CF910895EE0FFF1FAF
:1039F0000590F491E02D0994FB01DC0104C08D9148
:103A00000190801921F441505040C8F7881B990B50
:103A10000895F999FECF92BD81BDF89A992780B596
:103A20000895A8E1B0E042E050E00C943D1D262F3F
:103A3000F999FECF92BD81BDF89A019700B40216A4
:103A400039F01FBA20BD0FB6F894FA9AF99A0FBE52
:103A500008950396272F0E94181D0E94171D252FD9
:103A60000E94181D242F0C94181D0196272F0E94C8
:103A7000181D0C94171DDC01CB01FC01F999FECF38
:103A800006C0F2BDE1BDF89A319600B40D924150E6
:0A3A90005040B8F70895F894FFCFF6
:103A9A0005015301000000015101530104540101C1
:103AAA0051015201000000045801FFFFD50196168A
:103ABA009B169916CE169A1601F4F5F6F73133329B
:083ACA00946697C6000000009D
:00000001FF
